:020000040800F2
:1000000000200020615C0008B15C0008B15C0008C1
:1000100000000000000000000000000000000000E0
:10002000000000000000000000000000B15C0008BB
:100030000000000000000000B15C0008255B000823
:10004000B15C0008B15C0008B15C0008D95200083E
:10005000B15C0008B15C0008B15C0008B15C00084C
:1000600000000000395B0008B15C0008B15C0008CA
:10007000B15C0008495B000800000000B15C0008AA
:100080000000000000000000000000000000000070
:10009000595B000800000000B15C0008B15C00087A
:1000A00000000000B15C000800000000000000003B
:1000B000B15C0008B15C0008000000000000000016
:1000C00010B5064C2378002B07D1054B002B02D02E
:1000D000044800E000BF0123237010BD6001002030
:1000E00000000000D8660008044B10B5002B03D0B8
:1000F0000349044800E000BF10BDC04600000000F6
:1001000064010020D8660008002243088B4274D3A3
:1001100003098B425FD3030A8B4244D3030B8B4208
:1001200028D3030C8B420DD3FF22090212BA030C11
:100130008B4202D31212090265D0030B8B4219D3F2
:1001400000E0090AC30B8B4201D3CB03C01A524112
:10015000830B8B4201D38B03C01A5241430B8B425A
:1001600001D34B03C01A5241030B8B4201D30B0343
:10017000C01A5241C30A8B4201D3CB02C01A52416A
:10018000830A8B4201D38B02C01A5241430A8B422D
:1001900001D34B02C01A5241030A8B4201D30B0216
:1001A000C01A5241CDD2C3098B4201D3CB01C01A30
:1001B000524183098B4201D38B01C01A524143093A
:1001C0008B4201D34B01C01A524103098B4201D328
:1001D0000B01C01A5241C3088B4201D3CB00C01A95
:1001E000524183088B4201D38B00C01A524143080D
:1001F0008B4201D34B00C01A5241411A00D2014632
:10020000524110467047FFE701B5002000F006F8A4
:1002100002BDC0460029F7D076E770477047C04658
:100220008446081C6146FFE71FB500F0A3F90028CB
:1002300001D40021C8421FBD10B500F025F940428D
:10024000013010BD10B500F095F9002801DB002049
:1002500010BD012010BDC04610B500F08BF900287C
:1002600001DD002010BD012010BDC04610B500F01A
:1002700033F9002801DC002010BD012010BDC0466C
:1002800010B500F029F9002801DA002010BD012086
:1002900010BDC046002B11D1002A0FD1002900D17A
:1002A000002802D00021C943081C07B4024802A15B
:1002B0004018029003BDC04665FFFFFF03B46846C7
:1002C00001B5029800F01EF8019B9E4602B00CBCDE
:1002D0007047C0469E2110B5C905041CFFF7D0FF2A
:1002E000002803D1201C00F059FB10BD9E21201CCA
:1002F000C90500F08FF900F051FB80231B069C46D6
:100300006044F2E7F0B54F464646D646C0B5040015
:1003100082B00D00914698468B422FD82CD0414692
:10032000484600F043FF29000600200000F03EFF91
:10033000331A9C46203B9A4600D576E04B465246FF
:1003400093401F004B46624693401E00AF4228D8A0
:1003500025D05346A41BBD41002B00DA7BE00022D0
:1003600000230092019301235246934001930123FD
:1003700062469340009318E08242D0D900220023C5
:10038000009201930A9B002B01D01C605D600098D5
:10039000019902B01CBC90469946A246F0BDA3420A
:1003A000D7D900220023009201936346002BE9D0A5
:1003B000FB079846414672080A437B0866460EE0F2
:1003C000AB4201D1A2420CD8A41A9D4101202419AC
:1003D0006D410021013E24184D41002E06D0AB4254
:1003E000EED9013E24196D41002EF8D100980199F3
:1003F000534600196941002B23DB2B005246D340A2
:100400002A006446E2401C0053461500002B2DDBF9
:1004100026005746BE40330026006746BE403200E5
:10042000801A994100900191ACE7624620239B1A03
:100430004A46DA406146130042468A4017001F438D
:1004400080E7624620239B1A2A0066469A402300D2
:10045000F3401343D4E76246202300219B1A002275
:10046000009101920122DA40019280E72023624646
:1004700026009B1ADE402F00B0466646B74046462F
:100480003B003343C8E7C04670B542004E024C0003
:1004900045026D0A120EC30F760A240EC90FFF2AF9
:1004A0000FD0FF2C11D00120A24200D070BDB54268
:1004B000FCD18B420DD0002AF8D12800451EA8415E
:1004C000F4E70120002DF1D1EBE70120002EEDD162
:1004D000E9E70020EAE7C04670B54A004E0245024F
:1004E00044006D0A240EC30F760A120EC90FFF2CAA
:1004F00015D0FF2A0ED0002C15D1002A01D1002ED4
:100500001CD0002D14D08B4227D00220013B184074
:10051000013870BD002EEED002204042F9E7002DD8
:10052000FAD1FF2A0ED0002A0ED1002EEDD00BE01A
:1005300001230139994308000130EAE70020002D2A
:10054000E7D0E2E7002EE7D18B42DED1944205DD11
:100550000221581E08400138DBE70024A24204DCD7
:10056000B542D2D80020B542D3D2581E01239843B9
:100570000130CEE730B5420044024D02C30F4800BF
:10058000640A120E6D0A000EC90FFF2A12D0FF284E
:100590000CD0002A12D1002819D1002D17D1002C1F
:1005A0002BD00220013B1840013826E0002DF0D06E
:1005B000022022E0002CFBD1FF281FD000281FD1F1
:1005C000002D1DD10220013B1840013815E0002C00
:1005D0000ED08B42E5D10022904204DCAC42E0D840
:1005E0000020AC4209D2581E01239843013004E098
:1005F0000123013999430800013030BD002DD7D1C6
:100600008B42CED18242E7DD0221581E08400138DC
:10061000F3E7C046F8B54746CE464400C20F80B562
:1006200047024802400A8446664648007F0A240E74
:10063000F60025009046FB00000EC90FB146FF28CA
:1006400000D185E001267140261A914257D0002E34
:1006500043DD002800D07FE04946002900D1AAE010
:10066000013E002E00D0F7E05B1A5A0100D48BE067
:100670009B019C09200000F07BFD053884408542E9
:1006800000DDD3E0451B230020200135EB40451B56
:10069000AC40621E94412343072400251C400122E4
:1006A00041460A40002C04D00F211940042900D0F3
:1006B0000433590100D480E00135ECB2FF2D00D0A5
:1006C000A3E0FF2400235B02E405580AD20720437D
:1006D00010430CBC90469946F8BD002E74D1601CA6
:1006E000C0B2012800DCA7E04A469C1A620100D58E
:1006F000B6E0002CBED1002200240023E3E7002E48
:1007000000DC85E0002846D0FF2C49D080224846F6
:10071000D2041043814601221B2E09DC20204C46C6
:10072000801B84404A462000F240441EA041024300
:100730009B185A0128D50135FF2D00D1A8E00122D0
:10074000072494491A405B080B4013431C40A6E75A
:10075000002E00D078E775E7FF2C54D08022494660
:10076000D2041143894601221B2E09DC2021484670
:10077000891B88404A460100F240481E81410A43D5
:100780009B1A5A0100D573E7012241460A405907D6
:1007900000D089E711E04846002858D1FF2C0CD141
:1007A000DB08002B00D18CE78020C00303435B02F1
:1007B0005B0AFF2487E7FF2C25D0DB08FF2DF0D054
:1007C0005B025B0AECB27EE7002C4DD0FF2818D00C
:1007D0008024E404724223431B2A00DDC4E01C0091
:1007E0002025D440AA1A93405A1E934123434A46D7
:1007F0000500D31A884638E7721CF8D0F243FF2868
:10080000EAD10A004B46FF25D7E79B015B0A5AE76E
:10081000002E41D1651CE9B2012945DDFF2D00D133
:100820004FE707244B445B081C4038E707225A4B2C
:100830002D1A2340144032E7002C1DD1002B7AD111
:100840004B46002B00D191E00A000025B5E7013EA0
:10085000002E19D14B446CE7FF2C84D1FF25ACE767
:100860004A468846D41A05E7002BC5D10A00FF285E
:10087000C8D005004B46A0E7002B49D14B46002BC2
:1008800077D00A00FF2598E7FF2C00D043E787E7E1
:100890000A00FF24002316E7002C15D1002B57D1A6
:1008A000FF28E6D14B467BE7002C20D1002B57D008
:1008B0004946002953D04B445A0168D50724364A8B
:1008C0001C4001251340EAE6FF28EBD08022D20429
:1008D000764213431B2E53DC2025AD1B1A00AB4080
:1008E000F2405C1EA34113434B44050021E7002B5B
:1008F000D8D04946002900D152E78021C9030F42D0
:1009000000D14DE76046084200D049E74B4647E733
:100910004846FF25002800D14FE78022D203174226
:1009200004D06046104201D14B4688460122414620
:10093000FF250A4041E7484600281FD01A1A5001F7
:1009400020D54A460724D31A1C4088460025A6E62F
:10095000741CC9D0F643FF28BCD14B4620E799460A
:100960004B460025DB082BE7012340E7002200234C
:10097000A9E680230022DB03FF24A4E600251CE770
:100980000123B1E7002AF1D013000025FCE6002581
:10099000FAE6C046FFFFFF7DFFFFFFFB410242007A
:1009A000C30F490A120E00207E2A0DD99D2A0CD8A9
:1009B000802000040143952A0ADC9620821AD14047
:1009C0004842002B00D108007047034A9818FBE703
:1009D000963A9140F4E7C046FFFFFF7F70B5041ED2
:1009E00034D000F0C5FB9E22121A962A07DCD2B240
:1009F00008282EDD083884406002400A21E0992A48
:100A000009DD030021001B3399404B1E994105234A
:100A10001B1ADC400C43052801DD431F9C402300CA
:100A20000D490B40650709D00F252C40042C05D03B
:100A300004335C0102D59F220B40121A9B01580A15
:100A4000D2B24002D205400A104370BD00220020FD
:100A5000F7E76002400AF4E7FFFFFFFBF0B55746F7
:100A6000DE464E464546E0B5834607000E03480085
:100A700085B092461C00360B400DCD0F002800D1EA
:100A80009DE0954B984239D08023F6001B041E430D
:100A9000924A7B0F33439946944603006344009384
:100AA00000230026FF00029323031B0B98466300DC
:100AB000E40F52465B0D019400D1B3E086498B42AE
:100AC00000D19EE04246D100802212040A435146E2
:100AD000490F11438B46814952468C460099634425
:100AE000CB1A0021D20000932B0063409A460F2EB0
:100AF00000D905E17A4BB6009B599F465B463343CC
:100B0000994600D0B8E002230826002700900293FF
:100B1000CAE7CB463A0002990195019B9A46022901
:100B200027D0032900D180E2012944D06D49009BE0
:100B30008C4663441C00002C38DD530700D013E2C0
:100B4000D2085B46DB0109D55946674B19408B46F5
:100B50008021C9008C46009B63441C00634B9C426F
:100B600007DC5B4664055F075B0217431B0B620DE6
:100B700002E000230027584A00211B031C0B0B0D29
:100B80001B05234314055A4A380013401C4353469F
:100B90006400DB0764081C43210005B03CBC9046A0
:100BA0009946A246AB46F0BD0122524201231B1BCF
:100BB000382B00DCADE1002200230027DCE75B4698
:100BC000334399465ED0002E00D18AE1300000F018
:100BD000CFFA03000B3B1C2B00DD7BE11D22D31A57
:100BE0005A460100DA4008398E4013005F4633430D
:100BF00099468F403F4B00261B1A00930023029317
:100C000052E7414653460B433B499B468C46009B6B
:100C1000634400935B46002B3BD1022300221E431A
:100C2000022161E7434613439B4637D04346002BDE
:100C300000D162E1404600F09BFA03000B3B1C2B05
:100C400000DD53E102004146083A914088461D21EB
:100C5000CB1A5146D9400B0041460B439B465346A5
:100C600093401A00009B25499C46604403008C4633
:100C700063440093002137E70323B14600900C261C
:100C8000029311E700230093013304260027029307
:100C90000AE70323C3461E43032125E701331E430E
:100CA0000022012120E700239A46802300271B030E
:100CB000094A61E7802349461B03194200D1E2E05B
:100CC0005946194200D0DEE00B431B0317001B0BF3
:100CD000A246014A50E7C046FF07000001FCFFFFA3
:100CE0005C670008FF030000FFFFFFFEFE07000037
:100CF000FFFF0F800DFCFFFF01F8FFFFF303000073
:100D0000D94500D9CBE000D1C6E03C0048460027D9
:100D1000009B013B00935B46160E1B021E43130211
:100D2000984633041B0C9946310C0191FFF772FA77
:100D30004A4642430B04210C050019438A4207D955
:100D40008919013D8E4203D88A4201D9851E89192D
:100D5000881A0199FFF75EFA09048C464A46210475
:100D600064464243090C030021438A4204D989198D
:100D7000013B8E4200D8F1E02D041D43AB464346B3
:100D8000891A4246280C12041D0C5B46140C2200E2
:100D90001B041B0C5A4303946B4344430295684362
:100DA0001B19150CEB189C4203D980246402A4463D
:100DB00060441C0C15041B042D0C20185D19814285
:100DC00077D373D00C1AA24A7D1BAF42BF41944621
:100DD000009B7F426344E01B1C00864200D1DBE0A5
:100DE0000199FFF717FA4A4642430B04290C070002
:100DF00019438A4207D98919013F8E4203D88A4292
:100E000001D9871E8919881A0199FFF703FA090485
:100E10004A46894629044D464243090C03002943AA
:100E20008A4207D98919013B8E4203D88A4201D9E7
:100E3000831E89193F04891A3A00039F1A43380018
:100E400013041B0C584381460298150C6F4343430F
:100E500045434846000C8446DB1963449F4203D94E
:100E6000802040028446654448461F0C00041B0451
:100E7000000C7D191818A94200D284E000D17FE04F
:100E800001231A4357E680234A461B0313431B03DF
:100E90001B0BAA466F4A6FE6BA4200D935E74B46AC
:100EA000DC0758087B081C43FF0734E70024AF42E7
:100EB00089D247444745A4415B466442A41964185B
:100EC000013BA6421ED2A0426DD800D1B6E0241A42
:100ED0009B4678E703005A46283B9A4000279146F4
:100EE00088E6584600F044F9203072E60300524686
:100EF000283B9A4093460022B4E6504600F038F969
:100F000020309AE6A642E2D1B845DCD9341A9B4695
:100F100059E71F2B65DC504C0099A4465C466144A0
:100F200008008C4011008240D940501E82410C4381
:100F300014435A46DA401300620709D00F222240B8
:100F4000042A05D02200141D9442894149425B18AD
:100F50001A0262D50122002300270DE68A4200D83A
:100F60000AE7831E891907E70F231340042B00D1DA
:100F7000E6E5171D9742924153429B44FA08E0E58B
:100F8000002800D1D7E57118531EB14227D3A942DA
:100F900015D358D01A0073E7002B00DC04E60123B8
:100FA00000229B44CDE502234744474589415B42EB
:100FB0009C46494289190C19E344241A03E7434625
:100FC0005F0047459B41B8465B429E19023A89192A
:100FD000A94200D054E7404500D051E7ABE51A00E4
:100FE000F6E71F215F4649420C1BE740202B07D044
:100FF0001A49009B8C46634418005B4683401A43A1
:10100000501E82413A4307270023174009D00F2181
:10101000002311401400042995D122005F075B02D0
:101020001B0BD20817430022A6E5802359461B0359
:101030000B431B0317001B0B064A9DE5BD42B2D8AC
:101040009B460024BFE68045B9D31A00C3E7C046DB
:10105000FF030000FF0700001E0400003E04000024
:1010600030B5144D0A034B00120B5B0DC90F002461
:10107000AB4211DD104CA34210DC802464032243F8
:101080000E4CE41A1F2C0CDD0D48C31ADA40130075
:101090005C42002900D11C00200030BD094BCC1857
:1010A000FAE7094DE040AC4663449A40130003431D
:1010B000EEE7C046FE0300001D04000033040000FC
:1010C00013040000FFFFFF7FEDFBFFFF4100090E4F
:1010D0004B1C70B5DBB24602750AC40F012B14DD40
:1010E000E0239B006D07360BCB1800210A0D28006A
:1010F00012051C4D32435B052A405B0813435B001D
:10110000E4075B082343190070BD002914D1002DAA
:101110001ED0280000F02CF80A281CDC0B232A0023
:101120001B1ADA40030015339D400F4B12031B1AA4
:101130005B05160B5B0DD8E7002D06D0320B802621
:1011400036036D071643094BCFE7084B0026CCE763
:1011500000230026C9E703002A000B3B9A40002524
:10116000E3E7C046FFFF0F8089030000FF07000090
:101170001C2101231B04984201D3000C10391B0AC7
:10118000984201D3000A08391B09984201D300098B
:10119000043902A2105C40187047C04604030202E2
:1011A00001010101000000000000000010B500294D
:1011B00003D1FFF7DDFF203002E0081CFFF7D8FF66
:1011C00010BDC04610B50400094B1868FA2189000B
:1011D000FEF79AFF00F068FB002801D0012010BD47
:1011E000013000222100404200F024FB0020F6E7FD
:1011F000F800002010B5084A136840210B43136023
:101200000020FFF7DFFF041E02D00124200010BDE4
:1012100004F066FBFAE7C04600200240024A136869
:10122000013313607047C046D8030020014B186893
:101230007047C046D803002070B50400FFF7F6FFE2
:101240000500631C00D00134FFF7F0FF401BA042F3
:10125000FAD370BD10B582B00400084B1868084975
:10126000FEF752FF4443019402E0019B013B0193CE
:10127000019B002BF9D102B010BDC046F800002040
:1012800040420F0070B5040003689A68520721D5E8
:101290009A68520706D59A68920703D49A68102173
:1012A0000A439A60FFF7C2FF050023689B685B074B
:1012B0000ED5FFF7BBFF401B0A28F6D9636D10223D
:1012C00013436365A36D0F3A1343A365012002E046
:1012D000002000E0002070BD70B504000268916835
:1012E00003230B40012B01D0002070BD1368DB07E6
:1012F0002DD5916805230B40012B09D0436D102299
:1013000013434365836D0F3A134383650120ECE774
:10131000936802210B439360036803221A60FFF76E
:1013200085FF050023689B68DB070ED5FFF77EFF6E
:10133000401B0A28F6D9636D102213436365A36D21
:101340000F3A1343A3650120CFE70020CDE700202B
:10135000CBE7000070B504000268916803230B40DE
:10136000012B0DD09168184B19420ED0636D1022DD
:1013700013436365A36D0F3A1343A365012070BD4A
:101380001368DB07EED50020F9E7936801210B43D2
:1013900093600120FFF75EFFFFF748FF0500236819
:1013A0001B68DB070ED4FFF741FF401B0A28F6D964
:1013B000636D102213436365A36D0F3A1343A36556
:1013C0000120DCE70020DAE71700008070B5041E7A
:1013D00000D1E0E0436D002B2ED0636DDB0631D4ED
:1013E00021688B6804221A402CD1636D6B4803403E
:1013F0000630FF3003436365886803230340012BF5
:1014000029D06368C0200006834228D08020C00510
:10141000834224D080200006834220D00B699B00A9
:101420009B080B615E4B19685E48014019601968A2
:101430006068014319601BE083655022835404F007
:1014400069FACAE7636D10221343636550230022D3
:10145000E254012070BD0B68DB0713D4D1E70B69A0
:101460009B009B080B6121680B69606803430B615B
:101470002168CB6818208343CB602168CB68A068C3
:101480000343CB60464B196847480140196019680F
:10149000606B40060143196023689968C90004D451
:1014A000986880214905014399602168CB683F48CD
:1014B0000340CB602068C168E3682569022D2DD008
:1014C00013432022A25C520313432C22A25C52003D
:1014D0001343226B1343A26992031343E269D203BD
:1014E00013430B43C360636AC222FF32934205D0A9
:1014F0002168CA68A06A03431343CB602123E35CDD
:10150000012B0DD0E36B012B1ED023681A69D20783
:101510002DD51A6901218A431A6128E00422CFE7F8
:101520001F33E35C002B06D12268D16880235B0265
:101530000B43D360E6E7636D202213436365A36D1D
:101540001F3A1343A365DDE72268136918490B406E
:10155000136121680A69236C606C0343A06C034328
:1015600013430B612268136901210B431361226845
:10157000536907218B43536122685369A16B0B4365
:1015800053610023A365636D03229343023A13431F
:10159000636500205EE701205CE7C046FDFEFFFFBB
:1015A00008270140FFFFC3FFFFFFFFFD1902FEFFF9
:1015B00003FCFFFFF8B504000E00170003689B68EA
:1015C0005B073ED45023C35C012B3CD05023012247
:1015D000C254C369012B32D0FFF7BCFE051E2CD1CB
:1015E000636D1A4A1A4080235B001343636500232E
:1015F000A3655022A354E36C154ADA62E36C154AE2
:101600001A63E36C144A5A6323681C221A60226826
:10161000536810210B4353602268D3680F390B4382
:10162000D360216840313B003200E06C00F0BCF92F
:101630002268936804210B4393602800F8BD0025BD
:10164000CEE70225F9E70225F7E7C046FEF0FFFFE7
:10165000DD160008531700085F17000870B5050075
:101660005023C35C012B32D050230122C254FFF718
:1016700009FE041E04D050230022EA54200070BD4D
:101680002A68D36801218B43D360E86C00F0C7F966
:10169000041E03D06B6D402213436B652A685368A8
:1016A00010218B435360002C0DD12800FFF714FE4E
:1016B0000400002CDFD16B6D064A13400432FF3268
:1016C00013436B65D7E72800FFF706FEF1E7022416
:1016D000D4E7C046FEFEFFFF7047000010B5836AE6
:1016E0005A6D5021114203D0DB6C5B6B984710BDE3
:1016F000596D802292000A435A651A68D068C02149
:101700000901084214D12021595C002910D1116827
:1017100009070DD5916849070ED451680C20814303
:1017200051605A6D09490A400431FF310A435A6534
:101730001800FFF7D1FFDAE75A6D20210A435A65F6
:101740009A6D1F390A439A65F2E7C046FEFEFFFF15
:10175000704710B5806AFFF7FBFF10BD704710B5EA
:10176000806A436D402213434365836D3C3A1343C3
:101770008365FFF7F3FF10BD70B504000D00502323
:10178000C35C012B4BD050230122C25403689A68DA
:1017900052071AD4234A4968914229D0996A2A6883
:1017A0005203520B0A439A622B685B0316D42B68D0
:1017B0009B0305D51C4A11688023DB030B43136090
:1017C00050230022E254002070BD436D20221343B9
:1017D000436550230022C2540120F5E7124A1168E4
:1017E00080231B040B4313600A20FFF733FDDEE761
:1017F000996A2A685203520B914399622B685B03E2
:1018000004D5094A136809490B4013602B689B03F0
:10181000D6D5054A136806490B401360D0E702206D
:10182000D2E7C0460110000008270140FFFF7FFFFC
:10183000FFFFBFFF70B5002811DB8408134DC034D3
:10184000A400625903231840C000FC331E008640E8
:10185000B24389010B4083401343635170BDC0B252
:101860000F220240083A920806329200084BD31821
:101870005D6803242040C000FF2214008440A5437B
:1018800089010A4082402A435A60E7E700E100E00C
:1018900000ED00E01F2318401E3B8340014A136007
:1018A0007047C04600E100E001380A4B98420FD86B
:1018B000094A50600948036A1B021B0AC021090635
:1018C0000B430362002393600733136000207047CB
:1018D0000120FCE7FFFFFF0010E000E000ED00E06A
:1018E00070B51C25446C2540066C0124AC40746026
:1018F000046863608368102B04D0036899600368F0
:10190000DA6070BD03689A600368D960F9E7000087
:1019100070B5041E3DD005681F4BE8181421FEF772
:10192000F3FB800060641D4B236425230222E254F4
:101930002B681B4A1A40A368E1680B4321690B43DB
:1019400061690B43A1690B43E1690B43216A0B43B6
:1019500013432B608023DB01A2689A4210D0114B05
:1019600019681C22656C15400F20A840814319603E
:101970001968606C02406068904002000A431A6077
:101980000023E36325220121A154013AA35400203E
:1019900070BD0120FCE7C046F8FFFDBF000002401B
:1019A0000F80FFFFA800024070B504002420205CD7
:1019B000012832D02420012525540130205C012843
:1019C00004D024230022E254022070BD24300135CB
:1019D00025540020E063256828680126B04328606C
:1019E0002000FFF77DFF236B002B0BD022681368CC
:1019F0000E210B4313602268136801210B4313600F
:101A00000020E2E72268136804218B4313602268F8
:101A1000136806310B431360EDE70220D5E710B5DC
:101A20002523C35C022B06D00423C363203300228A
:101A3000C254012010BD026813680E218B4313604D
:101A400001680A6801239A430A601C22416C0A401B
:101A5000016C1C0094404C602522835423330022E7
:101A6000C2540020E6E770B5036C19680468256865
:101A70001C23426C134004229A40114214D06A077E
:101A800012D523689B0603D4236804229343236062
:101A90001C22436C1A40016C042393404B60036B7F
:101AA000002B00D0984770BD02229A4011421AD0F4
:101AB000AA0718D523689B0606D423680A229343F5
:101AC00023602523093AC2541C22436C1A40016C3E
:101AD000022393404B6024230022C254C36A002B8C
:101AE000E1D09847DFE708229A401142DBD02B076C
:101AF000D9D523680E22934323600E32436C1A40DB
:101B0000016C01231C0094404C60C3632522835464
:101B100023330022C254436B002BC4D09847C2E742
:101B2000F0B5C64600B5002338E0052600E00026E3
:101B3000AE4035003D430234A400534EA551534CF2
:101B400025684246D4432E0026404A68D20302D577
:101B5000424615432E004D4D2E606D682E002640E6
:101B60004A68920302D5424615432E00474D6E60E7
:101B7000AD682E0026404A68D20202D5424615437F
:101B80002E00424DAE60ED682C404A68920202D5AC
:101B900042462A4314003D4AD46001330A681400C7
:101BA000DC406DD001249C4022409046F5D04D6829
:101BB000022D01D0122D0ED1DD080835AD002F58B1
:101BC00007261E40B6000F22B24097430A69B24072
:101BD00016003E432E504D686E1E012E03D9112D66
:101BE00001D0122D12D185685F000326BE40B54397
:101BF0002E00CD68BD40354385604568A5434A68E1
:101C00001609012434409C402C43446007685E0060
:101C100003242500B540ED432F404A681440B440EA
:101C20003C430460C46825408C68B4402C43C460C5
:101C30004A68D200B1D5164D6C6B012634436C63F3
:101C40009C08A51CAD00104EAF5903251D40AD00EA
:101C50000F26AE40B743A026F605B04200D166E796
:101C60000C4EB04208D00C4EB04207D00B4EB042E2
:101C700000D15AE706265BE7012659E7022657E717
:101C800004BC9046F0BDC046000001400004014085
:101C9000001002400004005000080050001C0050DA
:101CA00003690B4201D1002070470120FCE7002AA4
:101CB00001D1816270478161FCE7000070B5041EAC
:101CC00024D00368124A1A600368124A1A60036833
:101CD00042685A60036882689A60FFF7A7FA0500B5
:101CE0002368DA68002A06D0FFF7A0FA401B3028E4
:101CF000F6D903200BE01969E268914202D01A611B
:101D0000002004E0044A1A60002000E0012070BDB9
:101D1000CCCC000055550000AAAA000070B5041EE6
:101D200041D02E23C35C002B37D02E230222E25455
:101D30002568EB686068012804D080221204A16A3B
:101D4000914201D11E2293436169184A914201D008
:101D5000174A1340174A1A40A3680343266A3343BD
:101D6000666A3343A66A33431343012803D08022B3
:101D70001204964203D1E2682069024313430B4ADE
:101D8000914204D0A2691143E26911430B43EB6015
:101D90002E230122E254002070BD2D330022C254B4
:101DA00003F000FEC1E70120F6E7C046FFFF000098
:101DB0003F1FFFFFF8F119FF7047704770477047EA
:101DC00070477047704710B5040003681A68D2075F
:101DD00002D59A68D2072AD423681A68920702D5D6
:101DE0009A68920728D423681A68520702D59A681D
:101DF000520727D423681A68120702D59A68120777
:101E000026D423681A68D20602D59A68D20625D449
:101E100023681A68920602D59A68920624D4236829
:101E20001A68520602D59A68520623D410BD0122C0
:101E30005A60FFF7C1FFCFE702225A602000FFF788
:101E4000BCFFD0E704225A602000FFF7B7FFD1E7BC
:101E500008225A602000FFF7B2FFD2E710225A6032
:101E60002000FFF7ADFFD3E720225A602000FFF7E4
:101E7000A8FFD4E740225A602000FFF7A3FFD5E770
:101E80001C4A1368E0218B4301680B4313601A4B13
:101E900059681A4A11405960196811401960D96887
:101EA0001140D96099680A409A604368DB0305D500
:101EB000114A116880235B020B43136043689B0344
:101EC00005D50D4A516880235B020B43536043687C
:101ED000DB0705D5084A916880235B020B439360BA
:101EE00043689B0705D5044AD16880235B020B43F6
:101EF000D36070470070004000040140FFFFFEFF08
:101F0000024A136810210B431360704700700040B1
:101F1000054A136802210B431360044A1369023116
:101F20000B43136130BF70470070004000ED00E0CC
:101F300010B5264BD9680C230B40082B42D00C2B34
:101F400011D0042B09D0214B5A68520B07231340A0
:101F5000013380200002984010BD1C4B1B68DB063B
:101F600032D51B48F8E78A0C0F231340194AD05C7E
:101F7000890D032211400131144BDB68DB030DD4C2
:101F8000124B1B68DB0613D54201121A93019B1AF0
:101F9000DB001B181802FEF7B7F8DDE74201121A42
:101FA00093019B1ADB001B185802FEF7ADF8D3E72C
:101FB0004201121A93019B1ADB001B189802FEF7CC
:101FC000A3F8C9E70448C7E70448C5E70010024082
:101FD00000093D003867000800127A000024F40070
:101FE000F0B583B0041E00D163E2C44BDA680C255F
:101FF0001540DA688026760216400368DB0736D57E
:10200000082D2CD00C2D28D06368802252029342D8
:1020100055D0A022D202934258D0B84B1A68B84982
:102020000A401A601A68802149020A400192019A06
:102030001A68B4490A401A606368002B52D0FFF74F
:10204000F5F80700AD4B1B689B0310D4FFF7EEF8C3
:10205000C01B6428F6D903202CE2002ED4D0A74B55
:102060001B689B0303D56368002B00D124E223681F
:102070009B076CD5E3689A0605D5A0480268202125
:102080000A4302608B43042D3CD00C2D38D0002B2A
:1020900000D1AEE099490A680920824313430B60DE
:1020A000FFF7C4F80600954B1B685B0700D597E067
:1020B000FFF7BCF8801B0228F5D90320FAE18F4A0C
:1020C000116880235B020B431360B5E78B4B1968E3
:1020D0008022D2020A431A601968802252020A43FF
:1020E0001A60A9E7FFF7A2F80700844B1B689B035F
:1020F000BDD5FFF79BF8C01B6428F6D90320D9E1B2
:10210000002EC4D17D4A1268520702D5002B00D19F
:10211000D4E17A4E72687C490A40216909020A4377
:102120007260326809218A4313433360FFF700FF6E
:10213000F26812090F231340744AD35CD840744BE1
:1021400018600020FFF73EF8002800D0B2E12368B5
:10215000DB062CD5002D5FD1684B1B689B0503D592
:10216000A369002B00D1ABE1644A536869490B4075
:10217000216A0B43536053681B021B0AE16909067D
:102180000B435360236A590B013180231B028B40A0
:10219000D16809090F220A405C498A5CD3405C4A35
:1021A00013600020FFF70EF8002800D082E12368BA
:1021B0001B077DD56369002B67D0504A136D012141
:1021C0000B431365FFF732F806004C4B1B6D9B0762
:1021D0006ED4FFF72BF8801B0228F6D9032069E1A3
:1021E00046494B68484A13402269120213434B6028
:1021F000ADE7424A136801218B431360FFF716F8DD
:1022000006003E4B1B685B07A1D5FFF70FF8801B4C
:102210000228F6D903204DE1A369002B22D0374ACA
:10222000116880235B000B431360FEF7FFFF06007D
:10223000324B1B689B0506D4FEF7F8FF801B022873
:10224000F6D9032036E12D4A536832490B40216A02
:102250000B43536053681B021B0AE16909060B43D9
:102260005360A4E7254A13682B490B401360FEF71F
:10227000DDFF0600214B1B689B0598D5FEF7D6FFB6
:10228000801B0228F6D9032014E11C4A136D01219A
:102290008B431365FEF7CAFF0600184B1B6D9B07A7
:1022A00006D5FEF7C3FF801B0228F6D9032001E103
:1022B00023685B0700D48CE0104B9B6BDB001BD4C6
:1022C0000E4A916B80235B050B4393630126134BEE
:1022D0001B68DB0526D5A36880225200934235D0C7
:1022E000002B4BD1054B1A6D0B490A401A651A6D2C
:1022F0000B490A401A652FE00026E8E7001002406B
:10230000FFFFFEFFFFFFFBFFFFE0FFFF446700084A
:10231000F8000020FF1FFFFFFFFEFFFF00700040DE
:10232000FFFBFFFF694A116880235B000B431360CA
:10233000FEF77CFF0700654B1B68DB05CBD4FEF77F
:1023400075FFC01B6428F6D90320B3E0604A116D05
:1023500080235B000B431365A368002B28D0FEF796
:1023600065FF07005A4B1B6D9B0530D4FEF75EFFDF
:10237000C01B584B9842F5D903209BE0A022D20005
:10238000934209D0524B1A6D53490A401A651A6D8F
:1023900052490A401A65DFE74D4B196D013AFF3A81
:1023A0000A431A65196D802252000A431A65D3E761
:1023B000FEF73CFF0700464B1B6D9B0507D5FEF75C
:1023C00035FFC01B434B9842F5D9032072E0012E24
:1023D0001AD0636A002B00D174E00C2D4FD0022B71
:1023E00018D03B4A13683E490B401360FEF71EFFAE
:1023F0000400374B1B689B013FD5FEF717FF001BFE
:102400000228F6D9032055E0314A936B35490B4039
:102410009363DEE72E4A136831490B401360FEF7E1
:1024200005FF05002A4B1B689B0106D5FEF7FEFE43
:10243000401B0228F6D903203CE02549CB682A4AF4
:102440001340A26AE06A0243206B02431343CB604D
:102450000A6880235B0413430B60FEF7E7FE040069
:102460001B4B1B689B0106D4FEF7E0FE001B0228F5
:10247000F6D903201EE000201CE000201AE0144BD7
:10248000DA6880235B021340A16A8B4201D00120ED
:1024900010E0F0239B031340E16A8B4201D001203E
:1024A00008E0C0231B041A40236B9A420CD0012081
:1024B00000E0012003B0F0BD0120FBE70120F9E7B7
:1024C0000120F7E70020F5E70020F3E70070004067
:1024D0000010024088130000FFFEFFFFFFFBFFFF1C
:1024E000FFFFFFFEFFFFFFEFFFFF02FF70B50400DD
:1024F0000D00002800D1BAE05F4B1A680123134099
:102500008B420BD25C490B68012293432B430B6037
:102510000B681A40AA4201D00120A9E023689B075A
:1025200006D5564AD368F0218B43A1680B43D3608C
:102530002368DB0764D56368022B09D0032B29D0FD
:10254000012B2DD04D4A1268920506D401208FE050
:102550004A4A1268920300D48BE04849CA680320B3
:1025600082431343CB60FEF761FE06006368022BD3
:102570001CD0032B28D0012B34D0404BDB680C221D
:102580001A423DD0FEF752FE801B3D4B9842F4D9D3
:1025900003206DE0394A12689201DED4012067E021
:1025A000364A12685207D8D4012061E0334BDA680A
:1025B0000C231340082B23D0FEF738FE801B304B32
:1025C0009842F3D9032053E02C4BDA680C231340D4
:1025D0000C2B15D0FEF72AFE801B294B9842F3D90D
:1025E000032045E0254BDA680C231340042B07D069
:1025F000FEF71CFE801B224B9842F3D9032037E0E4
:102600001D4B1A6801231340AB420BD91A490B68C2
:10261000012293432B430B600B681A40AA4201D05E
:10262000012025E023685B0706D5144AD3681549C5
:102630000B40E1680B43D36023681B0707D50F49A4
:10264000CB68114A13402269D2001343CB60FFF7D5
:102650006FFC0A4BDA6812090F2313400B4AD35C54
:10266000D8400B4B18600020FEF7ACFD00E00120C5
:1026700070BD0120FCE7C04600200240001002406F
:1026800088130000FFF8FFFFFFC7FFFF4467000843
:10269000F8000020014B18687047C046F800002081
:1026A00010B5FFF7F7FF044BDA68120A072313404F
:1026B000024AD35CD84010BD0010024054670008A5
:1026C00010B5FFF7E7FF044BDA68D20A072313407F
:1026D000024AD35CD84010BD001002405467000885
:1026E00070B5040003689B064CD55B4B9B6BDB000D
:1026F00000D571E0584A916B80235B050B439363CF
:102700000125564B1B68DB0568D5534B1968C02360
:102710009B031940626813408B4206D0C0239B0282
:1027200011001940994200D16DE04B4B1B6DC02147
:1027300089020B4015D00A409A4212D023689B06AA
:102740000FD5454B186D464A02401E6D8021090386
:1027500031431965196D434E314019651A65C3053A
:1027600058D46368C022920219001140914260D08F
:1027700039490B6DC02292026068024013430B6519
:10278000012D60D023689B0706D5334AD36C0C21FA
:102790008B43A1680B43D36423685B0706D52E4A9D
:1027A000D36C31490B40E1680B43D36423681B07AA
:1027B00006D5294AD36C2D490B4021690B43D364BC
:1027C00023681B0645D5244AD36C29490B4061690F
:1027D0000B43D364002070BD002592E71F4A1168A7
:1027E00080235B000B431360FEF720FD06001B4BAC
:1027F0001B68DB0500D588E7FEF718FD801B642801
:10280000F5D90320E7E7144B1B689B0300D48CE742
:102810000120E0E7FEF70AFD06000F4B1B6D9B054C
:102820009FD4FEF703FD801B124B9842F5D903207D
:10283000D1E709490A6810480240C02080030340DC
:1028400013430B6094E70A008B6B0C490B409363B6
:1028500098E70020BFE7C04600100240007000402B
:10286000FFFFFCFFFFFFF7FFFFF3FFFFFFCFFFFFBF
:10287000FFFFF3FF88130000FFFFCFFFFFFFFFEF15
:1028800070B504000268D368A0218B43D360FEF7C3
:10289000CDFC05002368DB689B0608D4FEF7C6FC68
:1028A000401BFA239B009842F4D9032000E000204B
:1028B00070BD70B504000368DA68520601D50020C7
:1028C00070BD01225242DA60FEF7B0FC05002368B9
:1028D000DB685B0608D4FEF7A9FC401BFA239B00CB
:1028E0009842F4D90320EBE70020E9E770B5041E15
:1028F00063D02123C35C002B40D021230222E25469
:102900002368C8325A622368773A5A622000FFF778
:10291000D0FF051E38D12268936829490B40936087
:1029200021688A68636820690343A06903431343ED
:102930008B602368E2681A6121680B69A26812043F
:1029400013430B612268D36880218B43D3602268D4
:10295000D36C7D398B43D3642168CB6CE2696069A9
:1029600002431343CB6423689B689B0615D52368F9
:10297000FF225A622123FE3AE2540CE02033002267
:10298000C25403F029F8B8E72368FF225A622123D2
:10299000FB3AE2540125280070BD2000FFF770FFCC
:1029A0000028E4D02368FF225A622123FB3AE25434
:1029B000013B0022E2540125EDE70125EBE7C0468B
:1029C000BFFF8FFF002302E001330A38C0B209289D
:1029D000FAD81B01DBB2184370470000F8B50400B9
:1029E0000E002023C35C012B00D178E020230121BD
:1029F000C15401330131C154002A43D103689B689B
:102A00005B0601D40023F3703078FFF7DBFF050489
:102A10007078FFF7D7FF00020543B078FFF7D2FFC9
:102A20000543F078000405432368CA225A622368EC
:102A3000773A5A622000FFF73CFF071E33D1236824
:102A4000284805401D602268936827490B40936021
:102A500021688B68F2683069024313438B602268F7
:102A6000D36880218B43D36023689B689B0626D55F
:102A70002368FF225A622123FE3AE254013B0022DE
:102A8000E2541AE003689B685B0601D40023F370EC
:102A900035782D04707800020543B0780543F0784E
:102AA00000040543C0E72368FF225A622123FB3A52
:102AB000E254013B0022E25401273800F8BD200017
:102AC000FFF7DEFE0028D3D02368FF225A622123BD
:102AD000FB3AE254013B0022E2540127EDE70227D2
:102AE000EBE7C0467F7F7F00FFFFFBFF70B5040070
:102AF0000E002023C35C012B69D020230121C15487
:102B000001330131C154002A06D17378D90603D5A7
:102B100010218B430A337370002A31D1F078FFF70C
:102B200051FF05047078FFF74DFF00020543B078B0
:102B3000FFF748FF05433078400305432368CA2266
:102B40005A622368773A5A622000FFF7B2FE061EE7
:102B500021D123681F4805405D602268D368802129
:102B60008B43D36023689B689B0620D52368FF2294
:102B70005A622123FE3AE254013B0022E25414E05F
:102B8000F5782D04707800020543B078054330785D
:102B900040030543D2E72368FF225A622123FB3A10
:102BA000E254013B0022E2540126300070BD2000B7
:102BB000FFF766FE0028D9D02368FF225A6221233E
:102BC000FB3AE254013B0022E2540126EDE70226E3
:102BD000EBE7C0463FFFFF00F8B504000E0015000C
:102BE0002023C35C012B00D177E020230122C254B3
:102BF00001330132C2540368C8325A620368773A1B
:102C00005A6203689B685B0518D5FEF70FFB070047
:102C10002368DB685B0711D5FEF708FBC01BFA23AE
:102C20009B009842F4D92368FF225A622123FC3A80
:102C3000E254013B0022E25403204DE022689368F5
:102C400027490B4093602168CA68FF231A40254B2F
:102C50001343CB60FEF7EAFA07002368DA685207ED
:102C600011D4FEF7E3FAC01BFA239B009842F4D973
:102C70002368FF225A622123FC3AE254013B0022DE
:102C8000E254032028E05E612268936807218B43A9
:102C90009360226893681D439560134B19688022E6
:102CA00052031143196099680A439A602268916837
:102CB0008023DB010B439360226891688023DB0053
:102CC0000B4393602368FF225A622123FE3AE254A9
:102CD000013B0022E2540020F8BD0220FCE7C04680
:102CE000FFFBFFFF7FFBFFFF0004014070B5040006
:102CF0002023C35C012B38D020230122C25401338E
:102D00000132C2540368C8325A620368773A5A6281
:102D10000268936816490B409360026893681549EE
:102D20000B409360FEF782FA05002368DA685207C9
:102D300011D4FEF77BFA401BFA239B009842F4D98A
:102D40002368FF225A622123FC3AE254013B00220D
:102D5000E254032008E0FF225A622123FE3AE254A3
:102D6000013B0022E254002070BD0220FCE7C04677
:102D7000FFFBFFFFFFBFFFFF03688022D2059042E9
:102D800005D0124A904202D0114A904203D17022DB
:102D900093434A6813438022D205904205D00B4AE0
:102DA000904202D00A4A904203D10A4A1340CA68AC
:102DB0001343802293430A69134303608B68C36201
:102DC0000B688362012343617047C04600080140DD
:102DD00000140140FFFCFFFF30B5036A012293435A
:102DE0000362036A446882697325AA430D682A4313
:102DF0000225AB438D682B43446082614A6842637D
:102E0000036230BD30B5036A102293430362036A44
:102E100045688269084C14400A6812022243202443
:102E2000A3431C008B681B012343456082614A68F1
:102E30008263036230BDC046FF8CFFFF30B5036A7A
:102E40000A4A13400362036A4568C2697324A243B5
:102E50000C682243064C1C408B681B0223434560D0
:102E6000C2614A68C263036230BDC046FFFEFFFF15
:102E7000FFFDFFFF30B5036A0A4A13400362036A8D
:102E80004568C269084C14400A6812022243074C84
:102E90001C408B681B0323434560C2614A6802647F
:102EA000036230BDFFEFFFFFFF8CFFFFFFDFFFFF7F
:102EB00030B5036A046A0125AC4304628469EF35C6
:102EC000AC43120122430A24A343194382610162E5
:102ED00030BD000030B5036A1024A3430362846947
:102EE000036A054D2C4012032243A024A343090189
:102EF00019438261016230BDFF0FFFFF0B00816843
:102F000070229143194307231943816070470000E1
:102F100030B58468034D2C401B021A4311432143F2
:102F2000816030BDFF00FFFF10B51F231940012451
:102F30008C40036AA3430362036A8A401A43026215
:102F400010BD70B5041E14D03923C35C002B0AD009
:102F5000392502236355211D2068FFF70DFF01234A
:102F60006355002070BD38330022C25402F044FD86
:102F7000EEE70120F6E739230222C2540268916885
:102F8000323B0B40062B03D0136801210B43136027
:102F900039230122C254002070470268D3680121FE
:102FA0000B43D3600268916807230B40062B03D0C4
:102FB000136801210B431360002070470268D36837
:102FC00001218B43D3600368196A044A114203D17B
:102FD0001A6801218A431A6000207047111100000D
:102FE000704770B5041E14D03923C35C002B0AD07F
:102FF000392502236355211D2068FFF7BDFE0123FB
:103000006355002070BD38330022C254FFF7E8FF3B
:10301000EEE70120F6E710B5040001220068FFF793
:1030200083FF2268916807230B40062B03D01368A7
:1030300001210B431360002010BD000070B5040097
:103040000D003823C35C012B69D038230121C15402
:1030500001330131C154042A37D019D9082A4AD082
:103060000C2A2AD129000068FFF704FF2268D169E1
:1030700080231B010B43D3612268D36929490B408C
:10308000D3612168CB69EA6812021343CB6114E073
:10309000002A12D129000068FFF79EFE226893697A
:1030A00008210B4393612268936904398B43936130
:1030B00022689369E9680B43936139230122E25442
:1030C000013B0022E254002070BD29000068FFF798
:1030D00099FE2268916980231B010B43936122684A
:1030E000936910490B40936121688B69EA68120269
:1030F00013438B61E1E729000068FFF79FFE226818
:10310000D36908210B43D3612268D36904398B4307
:10311000D3612268D369E9680B43D361CDE702200C
:10312000D2E7C046FFFBFFFF10B504003823C35CA5
:10313000012B66D038230122C25401330132C2541C
:10314000026893683048034093600B68402B4ED070
:1031500015D9602B41D021D9702B2BD08022920120
:10316000934232D1CB684A6889682068FFF7D0FE65
:10317000226891688023DB010B43936025E0102BCC
:1031800007D004D9202B04D0302B02D01DE0002B17
:103190001BD119002068FFF7B1FE16E0502B14D1A7
:1031A000CA6849682068FFF783FE50212068FFF74E
:1031B000A5FE0AE0CB684A6889682068FFF7A8FE88
:1031C0002268936877210B43936039230122E254EC
:1031D000013B0022E254002010BDCA684968206803
:1031E000FFF778FE60212068FFF788FEEDE7CA68E8
:1031F00049682068FFF75CFE40212068FFF77EFEEB
:10320000E3E70220E8E7C0468800FFFF7047704709
:1032100070477047704710B5040003681A69920739
:103220000FD5DA6892070CD5032252421A610123A6
:10323000037603689B699B0755D0FFF7E9FF0023DE
:10324000237623681A69520712D5DA6852070FD518
:10325000052252421A610223237623689A69C02309
:103260009B001A4245D02000FFF7D2FF00232376AF
:1032700023681A69120710D5DA6812070DD50922DA
:1032800052421A61042323762368DB699B0737D0F7
:103290002000FFF7BDFF0023237623681A69D206BA
:1032A00012D5DA68D2060FD5112252421A610823CC
:1032B00023762368DA69C0239B001A4227D02000B6
:1032C000FFF7A6FF0023237623681A69D20702D5E9
:1032D000DA68D20722D423681A69520602D5DA685E
:1032E000520622D410BDFFF792FF2000FFF791FF96
:1032F000A5E72000FFF78BFF2000FFF78AFFB5E767
:103300002000FFF784FF2000FFF783FFC3E72000C2
:10331000FFF77DFF2000FFF77CFFD3E70222524238
:103320001A612000FFF772FFD5E7412252421A616D
:103330002000FFF76FFFD5E7F0B53823C35C012B02
:103340001BD0382601239C46835539270133C355AA
:103350000268546893687025AC430D682C4380253F
:10336000AB431D004B682B43546002689360634677
:10337000C355002383550020F0BD0220FCE7000068
:10338000D0B504000168836802691343426913439E
:10339000C26913430A68B748024013430B602268AE
:1033A0005368B5490B40E1680B435360A16922683B
:1033B000B24B9A4201D0236A19439368B048034044
:1033C0000B4393602268AF4B9A4212D0AB4B9A42A8
:1033D00024D01023A9498A4240D080221202E169F8
:1033E000914276D0082B00D932E19B00A64AD358EF
:1033F0009F46A64BD96C0C230B40042B0AD005D951
:10340000082B27D00C2B07D10823E3E7002B03D18F
:103410000023DFE70423DDE71023DBE79B4BDB6CB6
:10342000C02109010B408021C9008B420ED009D96F
:10343000802109018B420FD0C02109018B4207D1A5
:103440000823C7E7002B03D10023C3E70423C1E708
:103450001023BFE70223BDE70223BBE7022B2DD0D9
:1034600007D9042B30D0082B00D0F4E080200002D4
:1034700007E0002B00D0EEE0FFF712F9002800D1A2
:10348000EBE0626853009B18834200D9E7E0130326
:10349000834200D2E5E0070E0602500800218019A1
:1034A00079410023FCF7F6FE794BC218794B9A421A
:1034B00000D9D8E02368D860002084E0734B1B68F3
:1034C000DB0604D47448DCE7FEF732FDD6E7734828
:1034D000D7E7082B62D89B00714AD3589F46FFF765
:1034E000DFF8400063685B08C0186168FCF70CFEF9
:1034F00003041B0C00206B491A00103A8A4200D9C1
:10350000B3E00F22190091435B08083A13400B43C4
:103510002268D36057E0FFF7D3F8400063685B0888
:10352000C0186168FCF7F0FD03041B0C0020E2E703
:10353000564B1B68DB060BD5636858085A4B9C46F4
:1035400060446168FCF7E0FD03041B0C0020D2E737
:1035500063685808554B9C4660446168FCF7D4FD8D
:1035600003041B0C0020C6E7FEF7E2FC4000636882
:103570005B08C0186168FCF7C7FD03041B0C002042
:10358000B9E76368580880235B029C466044616821
:10359000FCF7BAFD03041B0C0020ACE7012000235C
:1035A000A9E7FFF77DF863685B08C0186168FCF75E
:1035B000ABFD03041B0C00203A491A00103A8A4262
:1035C00055D82268D360002323666366D0BDFFF719
:1035D00077F863685B08C0186168FCF795FD030421
:1035E0001B0C0020E8E7294B1B68DB060BD5636842
:1035F00058082A4B9C4660446168FCF785FD03042B
:103600001B0C0020D8E763685808234B9C46604495
:103610006168FCF779FD03041B0C0020CCE7FEF782
:1036200087FC63685B08C0186168FCF76DFD0304E4
:103630001B0C0020C0E76368580880231B029C46CF
:1036400060446168FCF760FD03041B0C0020B3E7D5
:1036500001200023B0E70120B5E70020B3E70120F7
:10366000B1E70120AFE70120ADE70120ABE7012082
:10367000A9E7C046F369FFEFFFCFFFFF0048004016
:10368000FFF4FFFF00440040F06600080010024015
:1036900000FDFFFFFFFC0F000024F40000093D00C7
:1036A00014670008EFFF000000127A000048E801EC
:1036B000436ADB0706D5026853682C490B40816AD0
:1036C0000B435360436A9B0706D502685368284939
:1036D0000B40C16A0B435360436A5B0706D502681F
:1036E000536824490B40016B0B435360436A1B072B
:1036F00006D50268536820490B40416B0B43536069
:10370000436ADB0606D5026893681C490B40816B4F
:103710000B439360436A9B0606D502689368184979
:103720000B40C16B0B439360436A5B060BD5026889
:10373000536814490B40016C0B43536080235B03B7
:10374000026C9A420AD0436A1B0606D50268536887
:103750000D490B40816C0B435360704702685368FE
:103760000A490B40416C0B435360ECE7FFFFFDFF40
:10377000FFFFFEFFFFFFFBFFFF7FFFFFFFEFFFFFEE
:10378000FFDFFFFFFFFFEFFFFFFFF7FFFFFF9FFFE1
:10379000F0B5C64600B506000C0017009846069D19
:1037A0003368DB6923401B1B5A425341BB421CD187
:1037B0006B1CF5D0FDF73AFD4346C01AA84201D86C
:1037C000002DEDD1326813680A490B40136032684E
:1037D0009368A331FF318B43936020237367B367F2
:1037E00050330022F254032000E0002004BC904635
:1037F000F0BDC0465FFEFFFF30B583B0040000237C
:10380000C367FDF713FD050023681B681B070CD475
:1038100023681B685B0715D420236367A3675033B5
:103820000022E254002003B030BD80210C4B0093F5
:103830000300002289032000FFF7AAFF0028E7D039
:103840000320F0E78021064B00932B000022C903E0
:103850002000FFF79DFF0028DED00320E3E7C046ED
:10386000FFFFFF0110B5041E2ED0436F002B21D0A7
:10387000242363672268136801218B4313602000AF
:10388000FFF77EFD012814D0636A002B18D122684F
:1038900053680E490B405360226893682A218B437A
:1038A00093602268136829390B4313602000FFF7E7
:1038B000A3FF10BD70330022C25402F003F9D7E712
:1038C0002000FFF7F5FEE2E70120F2E7FFB7FFFF78
:1038D00030B50200002918D001201024145784426A
:1038E00009DD830055685B59002B04D08B4207D05B
:1038F000013040B2F1E7844203DC26231377002035
:1039000030BD52688300D150FAE70020F8E730B5A7
:103910000200002918D0012011241457844209DD27
:10392000830095685B59002B04D08B4207D001308F
:1039300040B2F1E7844203DC27231377002030BD37
:1039400092688300D150FAE70020F8E7F0B5CE4640
:10395000474680B583B0050001910AA80021415671
:1039600089462868012B17D0022B30D0012600276A
:1039700084683900F3195A00D2185300063BE31843
:103980001B795BB29846013350D024232B7703B0C8
:103990000CBC90469946F0BD0C23C356934210DBF5
:1039A00093009A18053A03689C4662440027D7574B
:1039B000002F09D001269657002ED9DC22232B7721
:1039C000E5E722232B77E2E71C232B77DFE70D23A4
:1039D000C35693420DDB1D4B9C4662445200436824
:1039E0009C4662440027D757002F05D001269657E2
:1039F000BEE722232B77CAE71C232B77C7E7FB18E8
:103A00005BB2984643465B0043445A00A418019BAE
:103A100063804B4623700B992800FFF759FF2071F4
:103A20000C992800FFF773FF6071B0E70023B342E1
:103A3000E8DA5A18500080184200A218127952B2DF
:103A40000132DCD001335BB2F1E7C046FFFFFF7FFC
:103A500001627047F0B583B006000C0015000193B9
:103A600003680C229A568A4216DB002918DD8A0068
:103A70005218053A19688F180022BA56002A12D136
:103A8000002D13DB12228256A9189B7B5BB2994250
:103A90000FDD2523037701E01623037703B0F0BD84
:103AA00016230377FAE71A230377F7E72A23037726
:103AB000F4E73A70837C5B1983740999FFF708FF78
:103AC000F87001993000FFF703FFB87008993000D3
:103AD000FFF7FEFE3871F368034A94466444A4007D
:103AE0000A9A1A517D70D9E7FFFFFF3F30B503688E
:103AF0000D241C578C421BDB00291CDD144CA446F2
:103B0000614449005C68A446614400240C57002CC1
:103B100014D1002A15DD1224045715199B7B5BB2C2
:103B20009D4211DC0C70837C9B1883744A7001E009
:103B30001723037730BD17230377FBE71B23037796
:103B4000F8E71F230377F5E725230377F2E7C0465D
:103B5000FFFFFF7F00B585B0002302930192009123
:103B6000033300220021FFF7F1FE05B000BD00B5D0
:103B700085B0002302930192494249B20091033378
:103B800000220021FFF7E2FE05B000BD10B584B0B1
:103B9000079C0294069C019400930123FFF7D6FE34
:103BA00004B010BD10B584B0079C0294069C01942B
:103BB0005B425BB200930123FFF7C8FE04B010BD67
:103BC00010B584B0069C02940193009202230A006F
:103BD0000021FFF7BBFE04B010BD10B584B0069CF9
:103BE00002940193002300930133FFF7AFFE04B06A
:103BF00010BDF0B5C64600B504000268007F01287C
:103C000000D09BE000230C215156994209DD990018
:103C1000C91815686956002900D193E001335BB2D9
:103C2000F1E700230D2696579E4208DD5D00566899
:103C30007557002D00D187E001335BB2F2E7002316
:103C40000E2555579D420DDD5D00ED186F009568FE
:103C5000AC46674404257D57013500D176E0013339
:103C60005BB2EDE700239846454511DD43465F0012
:103C700047447F00BC4697686346FF56B94267DBFE
:103C800073429F4266DB434601335BB29846EBE7E3
:103C900000239C461027E75767450ADD63469F00CF
:103CA0006368FF58002F57D0634601335BB29C46D0
:103CB000F0E700239C461127E75767450ADD634676
:103CC0009F00A368FF58002F48D0634601335BB2C2
:103CD0009C46F0E701239C4606E00023002B3FD0E2
:103CE000634601335BB29C4661450EDB00239D4277
:103CF000F3DD5C00E41867009468E457644502D083
:103D000001335BB2F3E70123E8E7012712E0013357
:103D10005BB29D4209DD5900C9184C0091680C57EF
:103D200079428C42F3D1012300E00023002B19D00B
:103D300001377FB2BE4202DB0023EAE7102004BC59
:103D40009046F0BD0920FAE70A20F8E70B20F6E7D5
:103D50001D20F4E71E20F2E72820F0E72920EEE7F7
:103D60003120ECE73220EAE770B50500002401E0DD
:103D7000013464B22B681B7B5BB2A34209DDA30054
:103D8000EA6898580028F3D0FFF7EEFF0128EFD03B
:103D900002E02800FFF72DFF70BD7047012070473B
:103DA00010B51323C356002B00D010BD43618361AF
:103DB0000368996800F002F8F7E70000F0B5C6461E
:103DC00000B504000D0006680423CB569B00426832
:103DD0009B5898470023EB56002B1FDDE37400230C
:103DE000A3613268002169568B005B18053BD3182C
:103DF0009B785BB29B0062689B5820009847E26802
:103E00000023EB5633498C4663449B00D05800286E
:103E100001D0FFF7C5FF04BC9046F0BD002B02DBCC
:103E20000023E374F7E70133DA07D31A5F007368FE
:103E30009C46674400250123FB56AB4246DD002229
:103E4000BA56AA1853009B185A00B3689846904473
:103E500043465B795BB29B00A2689B582000984761
:103E6000002802D101356DB2E5E743461B795BB20C
:103E70009B0062689B582000984743461B785BB2C2
:103E8000002B1FDDE3740023A36132684346002149
:103E900059568B005B18053BD3189B785BB29B008F
:103EA00062689B5820009847E26843461B785BB2E3
:103EB00008498C4663449B00D0580028ABD0FFF7DC
:103EC0006FFFA8E7002B01D1E374A4E72323237736
:103ED000A1E7C046FFFFFF3F70B50400026813234F
:103EE000C356002B15D015689A00D218053AAD18A4
:103EF0000A4A944663449B00C2689858002809D136
:103F00000423EB569B0062689B58200098470023CF
:103F1000E37470BDFFF7E0FFF2E7C046FFFFFF3F2D
:103F2000F0B5D6464F464646C0B505008A460368FA
:103F300098461323C356002B53D09E00F618053E17
:103F400043461B689C46664400290BD143690133F4
:103F500043618369013383610323F3569B00426805
:103F60009B5898471323EB56204A944663449B0082
:103F7000EA68D3589946002B01D1002406E0514647
:103F80001800FFF7CDFFF8E7013464B20123F356C0
:103F9000A34226DD0022B256A21853009B185F00F0
:103FA00043469B689C4667447B885345ECD1052378
:103FB000FB569B00AA689B58280098470028E3D02E
:103FC0004B46002B02D04846FFF786FF0423F356EA
:103FD0009B006A689B582800984739002800FFF723
:103FE000EDFE1CBC90469946A246F0BDFFFFFF3F88
:103FF00030B5026800230CE09900CC181568AC4677
:10400000644400252570C468A44661440D600133F2
:104010005BB20C2151569942EEDC002307E05900B7
:104020005468A446614400240C7001335BB20D2136
:1040300051569942F3DC002308E05900C9184C009E
:1040400091680919FF240C7101335BB20E2151569E
:104050009942F2DC4368114A1A60012307E09A0092
:1040600041688C4662440021116001335BB210222A
:1040700082569A42F3DC8368094A1A60012307E0FA
:104080009A0081688C4662440021116001335BB262
:10409000112282569A42F3DC30BDC0469B3D000897
:1040A0009D3D0008074B1B685A6A99698A4204D8EB
:1040B0009B68002B03D0002000E000207047012007
:1040C000FCE7C046C4000020074B1B685A6AD96948
:1040D0008A4204D89B68012B03D0002000E0002016
:1040E00070470120FCE7C046C4000020044B1B6859
:1040F0001B69002B01D1002070470120FCE7C0465E
:10410000C4000020054B1A68D36A116B5B1A126A4F
:10411000934201D8002070470120FCE7C400002032
:10412000074B1B689A6AD9698A4204D99B68012B9C
:1041300003D0002000E0002070470120FCE7C046CB
:10414000C4000020024B1B6803221A677047C04658
:10415000C4000020024B1B6800225A607047C04612
:10416000C4000020044B1B681B69012B01D00020F8
:1041700070470120FCE7C046C4000020044B1B68C8
:104180001B69002B01D0002070470120FCE7C046CE
:10419000C4000020044B1B681B69002B01D00020C9
:1041A00070470120FCE7C046C4000020024B1B689A
:1041B00001221A677047C046C4000020044B1B68E8
:1041C0001B69002B01D1002070470120FCE7C0468D
:1041D000C4000020044B1B681B69002B01D0002089
:1041E00070470120FCE7C046C4000020044B1B6858
:1041F000DB6E012B01D0002070470120FCE7C04698
:10420000C400002010B5FE20800500F0BFFE024B68
:104210001B6803221A6710BDC400002010B500F00F
:104220005BFD034B1B689A6A5A6200229A6010BDBC
:10423000C400002070B5054C2568FCF7F7FF286323
:1042400000F05CFD236801229A6070BDC40000206C
:1042500070B500F037FC064C2568FCF7E7FFE86214
:1042600023689A6A5A62FE20800500F08FFE70BDB6
:10427000C400002010B500F025FC10BD10B500F002
:1042800021FC024B1B689A6A9A6110BDC400002091
:1042900010B500F017FC00F031FD044B1C68012341
:1042A000A360FCF7C3FF606310BDC046C4000020DC
:1042B00010B500F011FD01F087F810BD10B500F049
:1042C0000BFD0C4C236800229A60FCF7AFFF2368BB
:1042D0005A6B801A186200F0F5FB23689A6ADA615B
:1042E0009B6905498C4663449A4200D910BD01F090
:1042F0006BF8FBE7C4000020B80B000010B5034BBF
:104300001C6800F031FB206110BDC046C4000020D5
:1043100070B5074C2568FCF789FFE862256800F056
:1043200023FB2861236801221A6000F0B9FC70BDEC
:10433000C400002010B500F067FF10BD10B500F0FC
:10434000E1FE064B1B68DA6D996E8A4202D80022A4
:10435000DA6610BD0122DA66FBE7C046C400002021
:1043600010B500F0D3FC10BD10B5054B1B681B69E0
:10437000002B01D1002010BD00F0A0FC0120FAE7C5
:10438000C400002010B50A4B1B68DA6A996C521AF7
:10439000D96C8A4201D8002010BD02221A6700F0B1
:1043A0008DFC034B1C68FCF741FFA0640120F3E780
:1043B000C400002010B5094B1A68D36A116C5B1A4F
:1043C000526C934201D8002010BD00F077FC034BE3
:1043D0001C68FCF72BFF20640120F5E7C4000020D7
:1043E000F0B587B00400F34D2800FFF701FE21006F
:1043F0002800FFF72DFB0027029701970097EE4B4F
:10440000012204212800FFF725FB032201212800B7
:10441000FFF76CFB029701970097E84B01220321FD
:104420002800FFF717FB029701970097E44B012242
:1044300002212800FFF70EFB029701970097E14B3E
:10444000012201212800FFF705FB04220221280098
:10445000FFF74CFB029701970097DB4B01220521E8
:104460002800FFF7F7FAD94A01212800FFF77FFB60
:1044700000970023042208212800FFF7AEFBD44B4D
:1044800000930023022201212800FFF799FBD14B62
:1044900000930023012201212800FFF791FB0097E0
:1044A0000023042201212800FFF78AFB01970097CF
:1044B0000423032208212800FFF768FB01970097D7
:1044C0000123022208212800FFF760FB01970097D3
:1044D0000223012208212800FFF764FBBE4B009352
:1044E0000023042202212800FFF76AFBBB4B009344
:1044F0000023052202212800FFF762FBB84B00933E
:104500000023032202212800FFF75AFB0097002313
:10451000012202212800FFF753FB01970097052392
:10452000052208212800FFF731FB2E002436300039
:10453000FFF75EFD059421003000FFF789FA02972E
:1045400001970097A74B012201213000FFF782FA63
:10455000029701970097A44B012203213000FFF737
:1045600079FA032201213000FFF7C0FA0297019780
:1045700000979E4B012202213000FFF76BFA029751
:10458000019700979A4B022204213000FFF762FA4C
:10459000029701970097974B012205213000FFF702
:1045A00059FA954A01213000FFF7D4FA0197009794
:1045B0000123012208213000FFF7F4FA0197009748
:1045C0000423032208213000FFF7E0FA8B4B00930D
:1045D0000023032201213000FFF7F2FA884B0093F9
:1045E0000023022201213000FFF7EAFA009700239E
:1045F000012201213000FFF7E3FA00970023022295
:1046000008213000FFF7E9FA7E4B0193009705235C
:10461000042208213000FFF7B9FA0197009704231C
:10462000042208213000FFF7B1FA01970097022316
:10463000052208213000FFF7A9FA2B0048331C009F
:104640001800FFF7D5FC05992000FFF701FA029743
:10465000019700976C4B012206212000FFF7FAF921
:10466000042201212000FFF741FA029501970097EB
:104670000023012204212000FFF7ECF902960197A4
:1046800000970023012202212000FFF7E3F9022214
:1046900002212000FFF72AFA0297019700975B4B4F
:1046A000012203212000FFF7D5F902970197009717
:1046B000574B012201212000FFF7CCF902220321F0
:1046C0002000FFF713FA029701970097514B002241
:1046D00005212000FFF7BEF94F4A02212000FFF715
:1046E00046FA019700970123062208212000FFF7D0
:1046F00059FA4A4B00930023022201212000FFF7C0
:104700005FFA474B00930023042201212000FFF7AA
:1047100057FA444B00930023012201212000FFF7A8
:104720004FFA00970023062201212000FFF748FAE4
:10473000019700970623042209212000FFF726FA9B
:10474000019700970623022209212000FFF71EFA95
:10475000354B00930023032202212000FFF730FA9B
:10476000324B00930023012202212000FFF728FA98
:10477000019700970123032208212000FFF706FA82
:10478000019700970323012208212000FFF70AFA6E
:10479000274B00930023052203212000FFF710FA86
:1047A00000970023062203212000FFF709FA2000CA
:1047B00007B0F0BD00000020054200081D420008BF
:1047C0003542000851420008B14200087542000815
:1047D000A5400008C9400008ED4000080541000858
:1047E000214100087D42000891420008454100082F
:1047F000FD420008BD42000855410008654100081F
:104800007D41000895410008114300083543000828
:104810003D43000861430008AD41000869430008BA
:1048200085430008B5430008BD410008D541000894
:10483000ED410008F0B589B01422002103A801F071
:104840005DFA1E4BDA6A01252A43DA62DA6A2A40E7
:104850000192019AD96A02221143D962DB6A1A4095
:104860000292029B88246400A026F6050022210003
:104870003000FDF71CFA124F002208213800FDF726
:1048800016FA0394049500240594069503A93000B4
:10489000FDF746F9F6235B0103930494059403A9FD
:1048A0003000FDF73DF90823039304950594069421
:1048B00003A93800FDF734F909B0F0BD001002403B
:1048C0000004005000B583B0094A116B012319435D
:1048D0001163126B13400193019B002200210920F8
:1048E000FCF7A8FF0920FCF7D5FF03B000BDC046C8
:1048F000001002400023036043608360C3600361D3
:104900000F4A42610F4A126882610F4A1268C261FF
:104910000E4A126802620E4A42628362C3620D4A04
:104920000264426483640C4AC2640C4A12680266E0
:104930000B4A126842660B4A126882660367704728
:10494000001BB70000000808040008080800080859
:10495000F7167A0060EA000010270000140008082B
:10496000180008081C00080810B584B00023039341
:10497000029327E06B460022DA710120FCF75CFC11
:10498000039A52006B4607331B789B18039301343C
:104990001F2C0BDC6B460A22DA71A023DB051B6996
:1049A0001B06E7D56B46093ADA71E6E7029B01334D
:1049B0000293039B013302D0039B002B02D1029B85
:1049C000022B01D90024E3E7039B013307D06B4698
:1049D0000022DA716B46D879C0B204B010BD6B46C4
:1049E0000122DA71F6E7000010B5FFF7BDFF0128DC
:1049F0000CD0A0208021C005FDF752F9002804D179
:104A00001F4B1B681B68012B23D010BD9F308021DA
:104A1000C005FDF745F90128F7D1194B1B681B6844
:104A2000002BF2D1FCF702FC0400FCF7FFFB001B9B
:104A30003128FAD9A0208021C005FDF731F90128DD
:104A4000E3D10F4B1B681A68002ADED101321A60CD
:104A5000DBE7FCF7EBFB0400FCF7E8FB001B31286D
:104A6000FAD9A0208021C005FDF71AF90028CCD181
:104A7000034B1B681A68012AC7D100221A60C4E7D9
:104A80009C00002070B580256D00A024E405012263
:104A900029002000FDF70BF90120FCF7CDFB0022D7
:104AA00029002000FDF703F996208000FCF7C4FBE5
:104AB00070BD10B58021A02001224900C005FDF77E
:104AC000F6F810BD70B5FFF7DDFF684A51680023A6
:104AD0000B6091680B60D1680B6011690B605169C4
:104AE0000B6092691360624B624A1A6045E00133C1
:104AF000172B21DC60490A6852000A605F490A6886
:104B000052000A605E490A6852000A609A005D49D4
:104B10005258910503D5584801680131016051058B
:104B200003D556480168013101601205DFD55449AB
:104B30000A6801320A60DAE74C4B98680168802203
:104B4000120451400160D868016851400160196940
:104B5000086842400A609A681168DB6999422AD95C
:104B600000231360484A1368013313600221464A48
:104B7000D3680133D360022939DC3D4B3D4A1A60CA
:104B8000A023DB051A69F0235B011A42F5D13F48E7
:104B9000FEF703FA354B5B681B68332BFAD9002309
:104BA000354A1360354A1360354A1360304B314A39
:104BB0001A6000239CE72D4AD26811688B4207D205
:104BC00000231360304A5368013353600221CEE75B
:104BD000264A126911688B4207D2002313602A4AC1
:104BE0009368013393600221C1E70321BFE71F4CA3
:104BF000A3681868E3681B68C01823691B68C0189D
:104C0000256AFBF781FA2860636A1A68002A02D1D4
:104C1000226A12681A60154A516A086843011B1A11
:104C2000106A00681B185B090B60516A936A096877
:104C30005962126A12689A62FFF73BFF144B1B68B5
:104C4000002B11D1094B1B6A1868FBF7C7FE1149ED
:104C5000FBF7E0FCFCF73AFA0F4A104BFBF7FEFEBD
:104C6000FCF7FEF9084B186170BDC0469C0000209F
:104C700000300040AAAA00000406002068040020BA
:104C8000380500206C04002098030020B4060020A2
:104C90000C00080802AD024B713D0AD7A3605F40CB
:104CA00004490B68044A1A4080235B0113430B60DC
:104CB0007047C04600700040FFE7FFFF04490B68E3
:104CC000044A1A4080231B0113430B607047C046FF
:104CD00000700040FFE7FFFF10B5074B1A6A996AA2
:104CE00012688A625B6A1A60A02000221021C00547
:104CF000FCF7DDFF10BDC0469C00002010B5A020D1
:104D000001221021C005FCF7D2FF10BD70B50C4B7D
:104D10001B680024DC635C639C630A4D2800FDF77C
:104D2000E5FF094A136804210B431360074B1C601D
:104D3000002207492800FDF74FFFFDF7E9F870BD95
:104D400048050020140500200070004010E000E03D
:104D5000FFFF0000284B1B68284A1A60284B0022DE
:104D60009A82284B9B69DB07FBD4264B5B68DB07E9
:104D700004D5244B244ADA60244ADA60214A516877
:104D8000C0239B020B435360214B9A6A116E214A48
:104D9000116030BF12689B6A196E8A4204D01849AC
:104DA0008A8A082002438A825A6E1B4B1A6030BFDF
:104DB0001A68174B9B6A596E8A4204D010498A8A36
:104DC000082002438A829A6E144B1A6030BF1A6818
:104DD0000F4B9B6A9B6E9A4204D0094A938A082122
:104DE0000B439382074B9B69DB07FBD4054A53684F
:104DF00001210B435360704754040020AAAA00000D
:104E00009803002000200240EFCDAB890504030287
:104E10009C00002014000808180008081C0008085E
:104E2000284B1B68284A1A60284B00229A82284B7C
:104E30009B69DB07FBD4264B5B68DB0704D5244B5F
:104E4000244ADA60244ADA60214A5168C0239B026E
:104E50000B435360214B9A6A9169214A116030BF1C
:104E600012689B6A99698A4204D018498A8A082084
:104E700002438A82DA691B4B1A6030BF1A68174BEB
:104E80009B6AD9698A4204D010498A8A0820024361
:104E90008A821A6A144B1A6030BF1A680F4B9B6AD9
:104EA0001B6A9A4204D0094A938A08210B439382D1
:104EB000074B9B69DB07FBD4054A536801210B4371
:104EC0005360704754040020AAAA000098030020F1
:104ED00000200240EFCDAB89050403029C000020B6
:104EE00000000808040008080800080810B50C4B6A
:104EF0001B68002B03D00B4A126893420FD10A4B58
:104F00009A6AD96A9161D969D161196B1166596B35
:104F100051669B6B9366FFF783FFFFF71BFF10BD86
:104F200004000808100008089C0000200A4B9B6A37
:104F30000A4A12689A610A4A1268DA61094A1268D2
:104F40001A62094A12681A66084A12685A66084ABA
:104F500012689A667047C0469C000020000008084E
:104F600004000808080008081400080818000808C9
:104F70001C00080810B51C00431A0298001B584377
:104F8000511AFBF7C1F8001910BD000070B584B0CC
:104F900000230393514B5B6A1B680393504B1B68C0
:104FA000504A1A60504B1968039B99422BD34B4BC4
:104FB000FE229205DA63494BD86B4C49FBF74CF95A
:104FC000002842D1454BD86B4949FBF745F90028E9
:104FD00063D1424CE16B4748FBF71CFBB425FBF760
:104FE00079F9636C009300236A000021FFF7C2FF88
:104FF000C8239B009C4660443F4B98610022DA61C5
:10500000A26C1A623EE03D4B1C68039B9C420FD889
:105010000398324DAB6A5A693C2300930023210068
:10502000FFF7A8FF2E30FF30FBF7D8FCE863C2E79C
:10503000039896235B00009300232200FFF79AFF5A
:10504000FBF7CCFC254BD863B5E7244CE16B274834
:10505000FBF7E0FAFBF73EF9236C0093002396225E
:105060000021FFF787FF244DA861E06BFBF732F9C1
:10507000636C0093002396220021FFF77BFFE86119
:1050800000232B621C4A91691D4B1B68D963D169AF
:105090005963126A9A6304B070BD174D0023AB6167
:1050A0000E4CE16B1248FBF7B5FA96267600FBF73B
:1050B00011F9636C0093002332000021FFF75AFFBF
:1050C000E861E06BFBF706F9A36C00930023320064
:1050D0009621FFF74FFF2862D4E7C0469C000020CE
:1050E00054040020AAAA000000000808000016438B
:1050F000000096430000B443980300200400080811
:1051000048050020F0B583B0384B9B6ADD6D384B05
:105110001B680024DC635C639C636420FCF78CF8F0
:1051200034490C6001223448FCF744FA0120FCF7B2
:1051300083F8324B324A1A602E4B1C68002CF8D090
:10514000304A91692A4B1B68D963D1695963126A45
:105150009A63002D00D02C002748FCF77FFAE3006B
:105160001C1B244B1B68E418204B9B6AE408DC657D
:105170009D6EAC4220D22C1B1E6EB4421CD91B4F1C
:10518000FB6C009364232A0031002000FFF7F2FE3D
:1051900038643B6D009364232A0031002000FFF740
:1051A000E9FE78647B6D009364232A0031002000BF
:1051B000FFF7E0FEB86404E00C4B00221A645A6466
:1051C0009A640A4B9B6A1B68012B0AD00D4A9169AD
:1051D000074B1B68D963D1695963126A9A6303B09C
:1051E000F0BDFE208005FFF7D1FEEFE79C00002018
:1051F00048050020400500205406002000300040F3
:10520000AAAA000098030020F8B5FFF7ADFB01281B
:1052100000D0F8BD2A4B1B682A4AD26CDA63FCF72F
:1052200005F896208000FCF707F8FFF79DFB0128A2
:10523000EFD1234B1B680022DA63FBF7F7FF6420F2
:10524000FBF7FAFFFFF75EFFFBF7F0FF0400FBF749
:10525000EDFF001B1C4B984229D81C4E33681C4D97
:105260001D60174F3B68174A126D5A63FA204000C1
:10527000FBF7E2FF3B6800225A63FA204000FBF78D
:10528000DBFF33681D60FFF76FFB0028DFD1FFF7FE
:1052900039FF0B4B1A680B4B196D51639B6ADA6D22
:1052A0009A66FFF757FD0B4B9C466444CFE7044BCF
:1052B0001B6800225A63034AD26CDA63FEE7C046D9
:1052C000480500209C0000207FA903005404002012
:1052D000AAAA000080A90300394B9B699B0722D42E
:1052E000374B9B699B0322D4354B9B69DB0328D446
:1052F000334B9B695B052FD4314B9B69DB0535D460
:105300002F4B9B699B043BD42D4B9B691B0541D4C0
:105310002B4B9B699B0548D42A4A938A802109011B
:105320000B43938202E0264B02229A617047254A82
:10533000938A40210B439382214B802292029A61EF
:10534000F4E7204A938A802189000B4393821C4B07
:10535000802252029A61E9E71A4A938A80210B431C
:105360009382174B8022D2009A61DFE7154A938A15
:1053700010210B439382124B802252009A61D5E791
:10538000104A938A20210B4393820D4B8022920175
:105390009A61CBE70B4A938A8021C9000B43938221
:1053A000074B802212019A61C0E7064A938A802146
:1053B00049000B439382024B802292009A61B5E729
:1053C000002002409803002010B5134B1B680022F8
:1053D0005A639A63114B1B68114A1A600E4B1B6883
:1053E000104AD26CDA63FBF721FF0400FBF71EFFC3
:1053F000001B2C23FF339842F8D9074B1B6800226F
:10540000DA63FBF713FF0400FBF710FF001B2C23EC
:10541000FF339842F8D9DDE7480500205404002006
:10542000AAAA00009C00002000B583B00822002139
:10543000684600F063FC1948194B03600023C363FE
:105440008022D20542608360836301220261C360CF
:105450001F328354013283548362C222FF3242627C
:10546000963AFF3A8354283A426103638361436367
:10547000C361FBF7ABFF00280CD10A4B00938023DC
:105480005B01019369460548FCF776F9002803D1D2
:1054900003B000BDFFF798FFFFF796FF540600200A
:1054A000002401400002002410B50748074B0360A8
:1054B00006234360064BC3608360FCF7FFFB0028B4
:1054C00000D110BDFFF780FF5404002000300040E1
:1054D000FF0F000000B58BB01022002106A800F0DD
:1054E0000DFC0822002104A800F008FC1022002175
:1054F000684600F003FC2D488023DB0503600F2382
:105500004360013383602A4BC3600023036143611E
:10551000FDF717FD00283BD180235B01069306A908
:105520002248FDF701FE002834D12048FDF759FD3F
:10553000002831D100230493059304A91B48FDF7EB
:10554000FBFE00282AD1602300935F3B01930023D8
:1055500002930393002269461448FDF76FFD00286B
:105560001ED102230193042269461048FDF766FD0F
:10557000002817D103230193082269460B48FDF741
:105580005DFD002810D1094800F058FA0BB000BDAD
:10559000FFF71AFFFFF718FFFFF716FFFFF714FFDB
:1055A000FFF712FFFFF710FFFFF70EFF480500207F
:1055B000FF0F000000B587B01422002101A800F001
:1055C0009DFB002300931948194A026043607F2223
:1055D00082608032C260036143618361C361FDF711
:1055E00085F900281CD101A900230B704B708B702A
:1055F000CB600B6101220D48FDF7F0F9002811D1B5
:1056000001236A461370537093700023D3700122F4
:1056100069460648FDF76AFA002805D107B000BDC3
:10562000FFF7D2FEFFF7D0FEFFF7CEFE14050020F5
:105630000028004010B50B480B4B0360E1235B02D0
:10564000436000238360C36003610C224261836175
:10565000C36103624362FEF705F9002800D110BD63
:10566000FFF7B2FE840500200044004000B587B07B
:105670001022002102A800F041FB08220021684608
:1056800000F03CFB1448154B0360202343600023CB
:1056900083600622C26003614361FDF752FC00286B
:1056A00013D180235B01029302A90B48FDF73CFD57
:1056B00000280CD100230093019369460648FDF7AA
:1056C0003BFE002805D107B000BDFFF77DFEFFF7C8
:1056D0007BFEFFF779FEC046B406002000080140BB
:1056E00010B50A480A4B036000234360E022120110
:1056F0008260084A4261036243628362FCF70EFBE8
:10570000002800D110BDFFF75FFEC046D404002082
:10571000007C0040FFFF000000B599B0342200215A
:105720000BA800F0EBFA1422002106A800F0E6FA1C
:1057300018220021684600F0E1FA21490B68214A4D
:105740001A4080231B0113430B600A230B93093B70
:105750000E9310220F92109301331493002315938C
:105760008023DB0216938023DB0317930BA8FCF73F
:1057700037FC00281ED10F2306930C3B0793002310
:10578000089309930A93012106A8FCF7AFFE0028AD
:1057900012D1A22300930023029380239B02019342
:1057A0008023DB0205936846FCF79AFF002805D1A9
:1057B00019B000BDFFF708FEFFF706FEFFF704FE75
:1057C00000700040FFE7FFFF70B5FBF713FDFFF728
:1057D000A3FFFFF72FF8FFF775F8FFF725FEFFF798
:1057E00063FEFFF777FEFFF7E5FEFFF723FFFFF706
:1057F0003DFFFFF775FF334C2000FDF7BCFB002198
:105800002000FDF708FC002801D0FFF7DDFD042192
:105810002C48FDF700FC002801D0FFF7D5FD08213A
:105820002848FDF7F8FB002801D0FFF7CDFD2648FA
:10583000FFF760F8254CA56AFFF796F82861FFF797
:1058400075FBFFF73FF9A36A5A6A5B699A4201D96F
:10585000FFF7BAFDFFF756FCFFF748FB0020FEF705
:10586000BFFD0400FEF780FA01280AD1184800F0B5
:1058700055FB2000FEF794FA08212000FEF750FBAC
:1058800005E0144800F04AFBF0E7FFF7ADF8124BD3
:105890001B68124A1A6008212000FEF741FB0B4BDF
:1058A0009B6A1B6F032BF0D108212000FEF738FB09
:1058B00009212000FEF734FB044B9B6A01221A6782
:1058C000E3E7C04648050020DC0300209C000020E0
:1058D000E06700089C67000854040020AAAA0000A2
:1058E00000B583B008220021684600F007FA084B93
:1058F0005A6B01210A435A63996B802252050A436D
:105900009A636846FCF7BCFAFCF7FAFA03B000BDEC
:105910000010024030B587B004001422002101A815
:1059200000F0ECF91A4B22689A4201D007B030BD62
:10593000184B5A6B8025AD002A435A63D96A02225C
:105940001143D962DB6A13400093009B0192032349
:10595000029301A91048FCF7E3F81048104B0360CC
:10596000002343608360C36080220261456180221E
:10597000120182612022C2610362FBF7C9FF002885
:1059800003D1064BE3649C62D0E7FFF71DFDF8E707
:105990000024014000100240000400500C060020CA
:1059A0000800024010B50268094B9A4200D010BDB1
:1059B000084A916B80231B060B439363002201214D
:1059C0000D20FBF737FF0D20FBF764FFEFE7C04624
:1059D000007C0040001002400268054B9A4200D053
:1059E0007047044A116D8023DB020B431365F7E710
:1059F000002800400010024010B503688022D20544
:105A0000934203D00B4A934206D010BD0A4A936BCF
:105A100001210B439363F8E7074A536B04210B43BF
:105A20005363002200211420FBF704FF1420FBF72E
:105A300031FFEAE70008014000100240F0B589B0EC
:105A400004001422002103A800F058F922688023E2
:105A5000DB059A4201D009B0F0BD184BDA6A012685
:105A60003243DA62DA6A32400192019ADA6A022437
:105A70002243DA62DB6A23400293029B039404947C
:105A8000079403A9A020C005FCF74AF8202303933C
:105A900004940025059506950527079703A9A020DE
:105AA000C005FCF73DF80396049405950695079705
:105AB00003A90348FCF734F8CDE7C04600100240C4
:105AC0000004005010B586B004001422002101A883
:105AD00000F014F92268104B9A4201D006B010BDB4
