:020000040800F2
:1000000000200020E553000835540008355400084E
:1000100000000000000000000000000000000000E0
:10002000000000000000000000000000355400083F
:10003000000000000000000035540008A552000830
:100040003554000835540008355400089549000817
:10005000355400083554000835540008355400085C
:1000600000000000BD520008355400083554000857
:1000700035540008CD520008000000003554000837
:100080000000000000000000000000000000000070
:10009000DD52000800000000355400083554000807
:1000A00000000000355400080000000000000000BF
:1000B000355400083554000800000000000000001E
:1000C00010B5064C2378002B07D1054B002B02D02E
:1000D000044800E000BF0123237010BD640000202D
:1000E0000000000080540008044B10B5002B03D022
:1000F0000349044800E000BF10BDC04600000000F6
:100100006800002080540008002243088B4274D30A
:1001100003098B425FD3030A8B4244D3030B8B4208
:1001200028D3030C8B420DD3FF22090212BA030C11
:100130008B4202D31212090265D0030B8B4219D3F2
:1001400000E0090AC30B8B4201D3CB03C01A524112
:10015000830B8B4201D38B03C01A5241430B8B425A
:1001600001D34B03C01A5241030B8B4201D30B0343
:10017000C01A5241C30A8B4201D3CB02C01A52416A
:10018000830A8B4201D38B02C01A5241430A8B422D
:1001900001D34B02C01A5241030A8B4201D30B0216
:1001A000C01A5241CDD2C3098B4201D3CB01C01A30
:1001B000524183098B4201D38B01C01A524143093A
:1001C0008B4201D34B01C01A524103098B4201D328
:1001D0000B01C01A5241C3088B4201D3CB00C01A95
:1001E000524183088B4201D38B00C01A524143080D
:1001F0008B4201D34B00C01A5241411A00D2014632
:10020000524110467047FFE701B5002000F006F8A4
:1002100002BDC0460029F7D076E770477047C04658
:100220008446081C6146FFE71FB500F0A3F90028CB
:1002300001D40021C8421FBD10B500F025F940428D
:10024000013010BD10B500F095F9002801DB002049
:1002500010BD012010BDC04610B500F08BF900287C
:1002600001DD002010BD012010BDC04610B500F01A
:1002700033F9002801DC002010BD012010BDC0466C
:1002800010B500F029F9002801DA002010BD012086
:1002900010BDC046002B11D1002A0FD1002900D17A
:1002A000002802D00021C943081C07B4024802A15B
:1002B0004018029003BDC04665FFFFFF03B46846C7
:1002C00001B5029800F01EF8019B9E4602B00CBCDE
:1002D0007047C0469E2110B5C905041CFFF7D0FF2A
:1002E000002803D1201C00F059FB10BD9E21201CCA
:1002F000C90500F08FF900F051FB80231B069C46D6
:100300006044F2E7F0B54F464646D646C0B5040015
:1003100082B00D00914698468B422FD82CD0414692
:10032000484600F0B9FB29000600200000F0B4FBAD
:10033000331A9C46203B9A4600D576E04B465246FF
:1003400093401F004B46624693401E00AF4228D8A0
:1003500025D05346A41BBD41002B00DA7BE00022D0
:1003600000230092019301235246934001930123FD
:1003700062469340009318E08242D0D900220023C5
:10038000009201930A9B002B01D01C605D600098D5
:10039000019902B01CBC90469946A246F0BDA3420A
:1003A000D7D900220023009201936346002BE9D0A5
:1003B000FB079846414672080A437B0866460EE0F2
:1003C000AB4201D1A2420CD8A41A9D4101202419AC
:1003D0006D410021013E24184D41002E06D0AB4254
:1003E000EED9013E24196D41002EF8D100980199F3
:1003F000534600196941002B23DB2B005246D340A2
:100400002A006446E2401C0053461500002B2DDBF9
:1004100026005746BE40330026006746BE403200E5
:10042000801A994100900191ACE7624620239B1A03
:100430004A46DA406146130042468A4017001F438D
:1004400080E7624620239B1A2A0066469A402300D2
:10045000F3401343D4E76246202300219B1A002275
:10046000009101920122DA40019280E72023624646
:1004700026009B1ADE402F00B0466646B74046462F
:100480003B003343C8E7C04670B542004E024C0003
:1004900045026D0A120EC30F760A240EC90FFF2AF9
:1004A0000FD0FF2C11D00120A24200D070BDB54268
:1004B000FCD18B420DD0002AF8D12800451EA8415E
:1004C000F4E70120002DF1D1EBE70120002EEDD162
:1004D000E9E70020EAE7C04670B54A004E0245024F
:1004E00044006D0A240EC30F760A120EC90FFF2CAA
:1004F00015D0FF2A0ED0002C15D1002A01D1002ED4
:100500001CD0002D14D08B4227D00220013B184074
:10051000013870BD002EEED002204042F9E7002DD8
:10052000FAD1FF2A0ED0002A0ED1002EEDD00BE01A
:1005300001230139994308000130EAE70020002D2A
:10054000E7D0E2E7002EE7D18B42DED1944205DD11
:100550000221581E08400138DBE70024A24204DCD7
:10056000B542D2D80020B542D3D2581E01239843B9
:100570000130CEE730B5420044024D02C30F4800BF
:10058000640A120E6D0A000EC90FFF2A12D0FF284E
:100590000CD0002A12D1002819D1002D17D1002C1F
:1005A0002BD00220013B1840013826E0002DF0D06E
:1005B000022022E0002CFBD1FF281FD000281FD1F1
:1005C000002D1DD10220013B1840013815E0002C00
:1005D0000ED08B42E5D10022904204DCAC42E0D840
:1005E0000020AC4209D2581E01239843013004E098
:1005F0000123013999430800013030BD002DD7D1C6
:100600008B42CED18242E7DD0221581E08400138DC
:10061000F3E7C046F8B54746CE464400C20F80B562
:1006200047024802400A8446664648007F0A240E74
:10063000F60025009046FB00000EC90FB146FF28CA
:1006400000D185E001267140261A914257D0002E34
:1006500043DD002800D07FE04946002900D1AAE010
:10066000013E002E00D0F7E05B1A5A0100D48BE067
:100670009B019C09200000F0F1F905388440854277
:1006800000DDD3E0451B230020200135EB40451B56
:10069000AC40621E94412343072400251C400122E4
:1006A00041460A40002C04D00F211940042900D0F3
:1006B0000433590100D480E00135ECB2FF2D00D0A5
:1006C000A3E0FF2400235B02E405580AD20720437D
:1006D00010430CBC90469946F8BD002E74D1601CA6
:1006E000C0B2012800DCA7E04A469C1A620100D58E
:1006F000B6E0002CBED1002200240023E3E7002E48
:1007000000DC85E0002846D0FF2C49D080224846F6
:10071000D2041043814601221B2E09DC20204C46C6
:10072000801B84404A462000F240441EA041024300
:100730009B185A0128D50135FF2D00D1A8E00122D0
:10074000072494491A405B080B4013431C40A6E75A
:10075000002E00D078E775E7FF2C54D08022494660
:10076000D2041143894601221B2E09DC2021484670
:10077000891B88404A460100F240481E81410A43D5
:100780009B1A5A0100D573E7012241460A405907D6
:1007900000D089E711E04846002858D1FF2C0CD141
:1007A000DB08002B00D18CE78020C00303435B02F1
:1007B0005B0AFF2487E7FF2C25D0DB08FF2DF0D054
:1007C0005B025B0AECB27EE7002C4DD0FF2818D00C
:1007D0008024E404724223431B2A00DDC4E01C0091
:1007E0002025D440AA1A93405A1E934123434A46D7
:1007F0000500D31A884638E7721CF8D0F243FF2868
:10080000EAD10A004B46FF25D7E79B015B0A5AE76E
:10081000002E41D1651CE9B2012945DDFF2D00D133
:100820004FE707244B445B081C4038E707225A4B2C
:100830002D1A2340144032E7002C1DD1002B7AD111
:100840004B46002B00D191E00A000025B5E7013EA0
:10085000002E19D14B446CE7FF2C84D1FF25ACE767
:100860004A468846D41A05E7002BC5D10A00FF285E
:10087000C8D005004B46A0E7002B49D14B46002BC2
:1008800077D00A00FF2598E7FF2C00D043E787E7E1
:100890000A00FF24002316E7002C15D1002B57D1A6
:1008A000FF28E6D14B467BE7002C20D1002B57D008
:1008B0004946002953D04B445A0168D50724364A8B
:1008C0001C4001251340EAE6FF28EBD08022D20429
:1008D000764213431B2E53DC2025AD1B1A00AB4080
:1008E000F2405C1EA34113434B44050021E7002B5B
:1008F000D8D04946002900D152E78021C9030F42D0
:1009000000D14DE76046084200D049E74B4647E733
:100910004846FF25002800D14FE78022D203174226
:1009200004D06046104201D14B4688460122414620
:10093000FF250A4041E7484600281FD01A1A5001F7
:1009400020D54A460724D31A1C4088460025A6E62F
:10095000741CC9D0F643FF28BCD14B4620E799460A
:100960004B460025DB082BE7012340E7002200234C
:10097000A9E680230022DB03FF24A4E600251CE770
:100980000123B1E7002AF1D013000025FCE6002581
:10099000FAE6C046FFFFFF7DFFFFFFFB410242007A
:1009A000C30F490A120E00207E2A0DD99D2A0CD8A9
:1009B000802000040143952A0ADC9620821AD14047
:1009C0004842002B00D108007047034A9818FBE703
:1009D000963A9140F4E7C046FFFFFF7F70B5041ED2
:1009E00034D000F03BF89E22121A962A07DCD2B2CD
:1009F00008282EDD083884406002400A21E0992A48
:100A000009DD030021001B3399404B1E994105234A
:100A10001B1ADC400C43052801DD431F9C402300CA
:100A20000D490B40650709D00F252C40042C05D03B
:100A300004335C0102D59F220B40121A9B01580A15
:100A4000D2B24002D205400A104370BD00220020FD
:100A5000F7E76002400AF4E7FFFFFFFB1C210123D8
:100A60001B04984201D3000C10391B0A984201D391
:100A7000000A08391B09984201D30009043902A26F
:100A8000105C40187047C0460403020201010101D6
:100A9000000000000000000010B5002903D1FFF79E
:100AA000DDFF203002E0081CFFF7D8FF10BDC04674
:100AB00010B50400074B1868FA218900FFF724FBE2
:100AC00000F05AFB012000222100404200F01AFBF6
:100AD000002010BD6000002010B5064A13684021B8
:100AE0000B4313600020FFF7E3FF04F0D1FA00206E
:100AF00010BDC04600200240024A13680133136053
:100B00007047C046BC000020014B18687047C046C3
:100B1000BC00002010B582B00190FFF7F5FF040083
:100B2000FFF7F2FF001B019B9842F9D302B010BD02
:100B300010B582B00400084B18680849FFF7E4FAC2
:100B40004443019402E0019B013B0193019B002B74
:100B5000F9D102B010BDC0466000002040420F0035
:100B600070B5040003689A68520721D59A68520745
:100B700006D59A68920703D49A6810210A439A60AE
:100B8000FFF7C2FF050023689B685B070ED5FFF7E0
:100B9000BBFF401B0A28F6D9A36D10221343A3659F
:100BA000E36D0F3A1343E365012002E0002000E00B
:100BB000002070BD70B504000268916803230B40EB
:100BC000012B01D0002070BD1368DB072DD5916883
:100BD00005230B40012B09D0836D1022134383653D
:100BE000C36D0F3A1343C3650120ECE793680221FC
:100BF0000B439360036803221A60FFF785FF05002B
:100C000023689B68DB070ED5FFF77EFF401B0A2891
:100C1000F6D9A36D10221343A365E36D0F3A134376
:100C2000E3650120CFE70020CDE70020CBE70000FF
:100C300070B504000268916803230B40012B0DD0AE
:100C40009168184B19420ED0A36D10221343A3656F
:100C5000E36D0F3A1343E365012070BD1368DB07B2
:100C6000EED50020F9E7936801210B439360012042
:100C7000FFF75EFFFFF748FF050023681B68DB07EF
:100C80000ED4FFF741FF401B0A28F6D9A36D1022AE
:100C90001343A365E36D0F3A1343E3650120DCE7DB
:100CA0000020DAE71700008070B5041E00D1DCE0F8
:100CB000836D002B2ED0A36DDB0631D421688B68A9
:100CC00004221A402CD1A36D694803400630FF303E
:100CD0000343A365886803230340012B29D063687D
:100CE000C0200006834228D08020C005834224D043
:100CF00080200006834220D00B699B009B080B617B
:100D00005C4B19685C4801401960196860680143D0
:100D100019601BE0C3655422835404F0E3F9CAE769
:100D2000A36D10221343A36554230022E254012033
:100D300070BD0B68DB0713D4D1E70B699B009B08E0
:100D40000B6121680B69606803430B612168CB6804
:100D500018208343CB602168CB68A0680343CB6035
:100D6000444B19684548014019601968A06B40065A
:100D70000143196023689968C90004D498688021E8
:100D80004905014399602168CB683D480340CB6029
:100D90002068C168E3682569022D2AD01343226ABE
:100DA00052031343226B52001343626B1343A26935
:100DB00092031343E269D20313430B43C360A36A54
:100DC000C222FF32934205D02168CA68E06A034319
:100DD0001343CB60636A012B0DD0236C012B1DD014
:100DE00023681A69D2072CD51A6901218A431A612E
:100DF00027E00422D2E7236A002B06D12268D168BB
:100E000080235B020B43D360E7E7A36D20221343EB
:100E1000A365E36D1F3A1343E365DEE722681369B8
:100E200018490B40136121680A69636CA06C034385
:100E3000E06C034313430B612268136901210B43E8
:100E400013612268536907218B43536122685369F8
:100E5000E16B0B4353610023E365A36D03229343CE
:100E6000023A1343A365002062E7012060E7C04611
:100E7000FDFEFFFF08270140FFFFC3FFFFFFFFFD4F
:100E80001902FEFF03FCFFFFF8B504000E00170077
:100E900003689B685B073ED45423C35C012B3CD0A2
:100EA00054230122C254C369012B32D0FFF7C0FE84
:100EB000051E2CD1A36D1A4A1A4080235B001343F0
:100EC000A3650023E3655422A354236D154ADA6217
:100ED000236D154A1A63236D144A5A6323681C2232
:100EE0001A602268536810210B4353602268D3684C
:100EF0000F390B43D360216840313B003200206D35
:100F000000F022FA2268936804210B4393602800C2
:100F1000F8BD0025CEE70225F9E70225F7E7C04630
:100F2000FEF0FFFFB10F0008231000082F1000088B
:100F300070B505005423C35C012B32D05423012229
:100F4000C254FFF70DFE041E04D054230022EA54BD
:100F5000200070BD2A68D36801218B43D360286DBF
:100F600000F01BFA041E03D0AB6D40221343AB65A7
:100F70002A68536810218B435360002C0DD1280040
:100F8000FFF718FE0400002CDFD1AB6D064A1340BA
:100F90000432FF321343AB65D7E72800FFF70AFEA0
:100FA000F1E70224D4E7C046FEFEFFFF70470000D1
:100FB00010B5836A9A6D5021114203D01B6D5B6B93
:100FC000984710BD996D802292000A439A651A686D
:100FD000D068C0210901084213D1196A002910D133
:100FE000116809070DD5916849070ED451680C2086
:100FF000814351609A6D09490A400431FF310A4327
:101000009A651800FFF7D2FFDBE79A6D20210A43AB
:101010009A65DA6D1F390A43DA65F2E7FEFEFFFFD3
:10102000704710B5806AFFF7FBFF10BD704710B521
:10103000806A836D402213438365C36D3C3A13433A
:10104000C365FFF7F3FF10BD70B504000D00542316
:10105000C35C012B4BD054230122C25403689A680D
:1010600052071AD4234A4968914229D0996A2A68BA
:101070005203520B0A439A622B685B0316D42B6807
:101080009B0305D51C4A11688023DB030B431360C7
:1010900054230022E254002070BD836D20221343AC
:1010A000836554230022C2540120F5E7124A1168D7
:1010B00080231B040B4313600A20FFF739FDDEE792
:1010C000996A2A685203520B914399622B685B0319
:1010D00004D5094A136809490B4013602B689B0328
:1010E000D6D5054A136806490B401360D0E70220A5
:1010F000D2E7C0460110000008270140FFFF7FFF34
:10110000FFFFBFFF70B5002811DB8408134DC0340A
:10111000A400625903231840C000FC331E0086401F
:10112000B24389010B4083401343635170BDC0B289
:101130000F220240083A920806329200084BD31858
:101140005D6803242040C000FF2214008440A543B2
:1011500089010A4082402A435A60E7E700E100E043
:1011600000ED00E01F2318401E3B8340014A13603E
:101170007047C04600E100E001380A4B98420FD8A2
:10118000094A50600948036A1B021B0AC02109066C
:101190000B43036200239360073313600020704702
:1011A0000120FCE7FFFFFF0010E000E000ED00E0A1
:1011B000042805D0054A136804218B431360704747
:1011C000024A136804210B431360F8E710E000E0C3
:1011D000704710B5FFF7FCFF10BD10B504686360E1
:1011E0008368102B04D0036899600368DA6010BD2F
:1011F00003689A600368D960F9E7000010B5002819
:1012000000D182E02523C35C002B02D124330022CD
:10121000C25425230222C25401680B683C4A1A407A
:101220008368C4682343046923434469234384696E
:101230002343C4692343046A234313430B600368B5
:10124000344A93421CD0344A934227D0334A9342C3
:101250002FD0334A934237D0324A93423FD0324A5A
:10126000934247D0314A934213D1314B1A683149E6
:101270000A401A601A68416809060A431A6008E0C1
:101280002B4B1A680F218A431A601A6841680A4377
:101290001A6025230122C254002010BD244B1A6875
:1012A000F0218A431A601A68416809010A431A60EA
:1012B000EFE71F4B1A6820490A401A601A68416814
:1012C00009020A431A60E4E7194B1A681B490A40ED
:1012D0001A601A68416809030A431A60D9E7144B77
:1012E0001A6817490A401A601A68416809040A43D3
:1012F0001A60CEE70E4B1A6812490A401A601A6843
:10130000416809050A431A60C3E70120C5E7C046E2
:101310000FC0FFFF080002401C00024030000240E6
:1013200044000240580002406C000240800002402D
:10133000A8000240FFFFFFF0FFF0FFFFFF0FFFFFDD
:10134000FFFFF0FFFFFF0FFFF8B504002420205C33
:10135000012820D0012524202554022601302654BE
:1013600027683868A84338602000FFF736FF2268F6
:101370001368334313602268136804210B4313601E
:101380002268136804310B431360226813682B43EF
:1013900013600020F8BD0220FCE770B5040002686D
:1013A000136801218B431360FFF7AEFB0500236830
:1013B0001B68DB0712D5FFF7A7FB401BFA239B0036
:1013C0009842F4D9E36B20221343E36324230022E1
:1013D000E25401330332E254032006E024230022C6
:1013E000E25401330132E254002070BD10B5040014
:1013F000974B1A68036897498B4214D096498B42E1
:1014000031D096498B4230D095498B4230D09549A6
:101410008B4230D094498B4202D08021090503E0F1
:101420008021090400E0082111423CD01A6812070B
:1014300039D51A6808218A431A602368854A93427D
:101440001FD0854A934246D0844A934245D0844A6D
:10145000934245D0834A934245D0834A93420DD06C
:10146000802212050EE08021DEE780210901DBE702
:1014700080210902D8E780210903D5E780221204E0
:1014800000E00822724B5A60E36B01221343E363CE
:1014900025230332E254013B0022E254636B002B0C
:1014A00001D0200098476A4B1A68236869498B422B
:1014B0001FD069498B423FD068498B423ED0684972
:1014C0008B423ED067498B423ED067498B420DD05C
:1014D0008021C9040EE08022D4E780221201D1E7E6
:1014E00080221202CEE780221203CBE78021C903BB
:1014F00000E00421114238D01A68520735D51A6825
:10150000920603D41A6804218A431A602368514A58
:1015100093421FD0504A93423FD0504A93423ED00C
:101520004F4A93423ED04F4A93423ED04E4A934256
:101530000DD08022D2040EE04021DBE78021C900DB
:10154000D8E78021C901D5E78021C902D2E78022EE
:10155000D20300E004223E4B5A6025230522E254C8
:10156000236B002B01D020009847394B1A68236861
:1015700038498B421FD038498B423FD037498B4284
:101580003ED037498B423ED036498B423ED0364919
:101590008B420DD0802189040EE04022DBE78022BF
:1015A000D200D8E78022D201D5E78022D202D2E74A
:1015B0008021890300E0022111423DD01A68920780
:1015C0003AD51A68920603D41A6802218A431A602F
:1015D0002368204A93421FD01F4A93422DD01F4AAE
:1015E00093422CD01E4A93422CD01E4A93422CD0B8
:1015F0001D4A93420DD0802292040EE02021DBE7A9
:1016000080218900D8E780218901D5E780218902DE
:10161000D2E78022920300E002220D4B5A60E36B76
:10162000E36325230122E254013B0022E254E36AF2
:10163000002B01D02000984710BD2022EDE780222A
:101640009200EAE780229201E7E780229202E4E733
:1016500000000240080002401C000240300002402E
:1016600044000240580002406C000240F0B5C646FB
:1016700000B5002338E0052600E00026AE40350026
:101680003D430234A400534EA551534C25684246B5
:10169000D4432E0026404A68D20302D54246154361
:1016A0002E004D4D2E606D682E0026404A68920334
:1016B00002D5424615432E00474D6E60AD682E00A0
:1016C00026404A68D20202D5424615432E00424DBA
:1016D000AE60ED682C404A68920202D542462A4329
:1016E00014003D4AD46001330A681400DC406DD018
:1016F00001249C4022409046F5D04D68022D01D037
:10170000122D0ED1DD080835AD002F5807261E40DA
:10171000B6000F22B24097430A69B24016003E431A
:101720002E504D686E1E012E03D9112D01D0122DA1
:1017300012D185685F000326BE40B5432E00CD68F8
:10174000BD40354385604568A5434A6816090124B4
:1017500034409C402C43446007685E00032425000D
:10176000B540ED432F404A681440B4403C43046008
:10177000C46825408C68B4402C43C4604A68D200D9
:10178000B1D5164D6C6B012634436C639C08A51CC7
:10179000AD00104EAF5903251D40AD000F26AE40E1
:1017A000B743A026F605B04200D166E70C4EB04222
:1017B00008D00C4EB04207D00B4EB04200D15AE7D1
:1017C00006265BE7012659E7022657E704BC904648
:1017D000F0BDC0460000014000040140001002407E
:1017E0000004005000080050001C005003690B4228
:1017F00001D1002070470120FCE7002A01D181625D
:1018000070478161FCE7000070B5041E24D00368B6
:10181000124A1A600368124A1A60036842685A60E2
:10182000036882689A60FFF76FF905002368DA6839
:10183000002A06D0FFF768F9401B3028F6D90320AC
:101840000BE01969E268914202D01A61002004E0BD
:10185000044A1A60002000E0012070BDCCCC0000DA
:1018600055550000AAAA000070B5041E3AD02E23D8
:10187000C35C002B28D02E230222E2542568EB689B
:101880006068012826D0626917498A4201D0174949
:101890000B4017491940A3680343266A3343666A1D
:1018A0003343A66A33430B43012816D00E498A42BC
:1018B00004D0A1690A43E1690A431343EB602E2374
:1018C0000122E254002070BD2D330022C25403F0E7
:1018D0004BFCD0E71C329343D5E7E1682069014314
:1018E0000B43E3E70120EEE7FFFF00003F1FFFFF90
:1018F000FEF119FF70477047704770477047704797
:101900007047000010B5040003681A68D20702D5BA
:101910009A68D2072ED423681A68920702D59A686B
:1019200092072CD423681A68520702D59A68520786
:101930002BD423681A68120702D59A6812072AD492
:1019400023681A68D20602D59A68D20629D4236879
:101950001A68920602D59A68920628D423681A68F3
:10196000520602D59A68520627D4174B8022920558
:101970005A6110BD01225A60FFF7BCFFCBE702227B
:101980005A602000FFF7B7FFCCE704225A6020001E
:10199000FFF7B2FFCDE708225A602000FFF7ADFF46
:1019A000CEE710225A602000FFF7A8FFCFE72022E1
:1019B0005A602000FFF7A3FFD0E740225A602000C2
:1019C000FFF79EFFD1E7C046000401401C4A1368A0
:1019D000E0218B4301680B4313601A4B59681A4A84
:1019E00011405960196811401960D9681140D960D7
:1019F00099680A409A604368DB0305D5114A11686B
:101A000080235B020B43136043689B0305D50D4A9B
:101A1000516880235B020B4353604368DB0705D5A5
:101A2000084A916880235B020B43936043689B07DD
:101A300005D5044AD16880235B020B43D36070470D
:101A40000070004000040140FFFFFEFF024A1368DF
:101A500010210B431360704700700040054A136863
:101A600002210B431360044A136902310B431361D3
:101A700030BF70470070004000ED00E030B51B4BF8
:101A8000DB68F022134022D1184A926BD2000ED5A7
:101A9000174A1268C02149010A40C02149018A42FF
:101AA00016D1C0221202904212D1012310E00F4938
:101AB0008C6B8022520522438A630D4A1268C0242F
:101AC000640122408C6B0B4D2C408C63E5E70023B6
:101AD0000948026801218A431A43026002681140E2
:101AE000994201D0012030BD0020FCE700100240E7
:101AF00000700040FFFFFFEF0020024070B582B091
:101B000004000368DB0740D5CC4BDA680C23134094
:101B1000082B32D0C94BDA680C2313400C2B28D089
:101B2000636880225202934257D0A022D20293428D
:101B30005AD0C24B1A68C2490A401A601A688021FA
:101B400049020A400192019A1A68BE490A401A6085
:101B50006368002B54D0FEF7D7FF0500B74B1B6816
:101B60009B0312D4FEF7D0FF401B6428F6D9032054
:101B700031E2B24BDB68DB03D2D5B04B1B689B0371
:101B800003D56368002B00D11EE223689B075AD55A
:101B9000AA4BDA680C231340042B43D0A74BDA6816
:101BA0000C2313400C2B39D0E368002B00D1ADE09F
:101BB000A2490A680920824313430B60FEF7A4FF81
:101BC00005009E4B1B685B0700D596E0FEF79CFF67
:101BD000401B0228F5D90320FDE1984A11688023B3
:101BE0005B020B431360B3E7944B19688022D20267
:101BF0000A431A601968802252020A431A60A7E752
:101C0000FEF782FF05008D4B1B689B03BDD5FEF7D9
:101C10007BFF401B6428F6D90320DCE1874BDB689F
:101C2000DB03C1D4854B1B685B0704D5E368012B3C
:101C300001D00120CFE181494B68834A13402269DA
:101C4000120213434B602368DB063BD57B4BDB68FA
:101C50000C221A4200D080E0784B1B689B0503D50C
:101C6000A369002B00D1B1E1206A744B5B68E022CC
:101C70001202134098425CD9FFF700FF002800D001
:101C8000A6E16E4A536871490B40216A0B435360C9
:101C900053681B021B0AE16909060B435360236A60
:101CA0005A0B013280231B029340644AD168090910
:101CB0000F220A4066498A5CD340664A13600020BE
:101CC000FEF7F6FE23681B0700D492E06369002B41
:101CD0007CD05A4A136D01210B431365FEF714FFA4
:101CE0000500564B1B6D9B0700D582E0FEF70CFFED
:101CF000401B0228F5D903206DE150494B68524A38
:101D000013402269120213434B609CE74B4A13684D
:101D100001218B431360FEF7F7FE0500474B1B685C
:101D20005B0790D5FEF7F0FE401B0228F6D9032092
:101D300051E1424A536845490B401843506053688B
:101D40001B021B0AE16909060B435360206AFFF777
:101D500095FE0028A3D001203DE1A369002B22D0ED
:101D6000364A116880235B000B431360FEF7CCFEFC
:101D70000500324B1B689B0506D4FEF7C5FE401BD1
:101D80000228F6D9032026E12C4A53682F490B403C
:101D9000216A0B43536053681B021B0AE169090661
:101DA0000B4353608EE7254A13682B490B401360A1
:101DB000FEF7AAFE0500214B1B689B0582D5FEF7A6
:101DC000A3FE401B0228F6D9032004E11B4A136D31
:101DD00001218B431365FEF797FE0500174B1B6D22
:101DE0009B0706D5FEF790FE401B0228F6D903207C
:101DF000F1E023685B0700D48DE0104B9B6BDB00A8
:101E000030D40E4A916B80235B050B43936301250D
:101E1000124B1B68DB0527D5A36880225200934232
:101E200036D0002B4CD1054B1A6D0B490A401A6570
:101E30001A6D0B490A401A6530E0C0460010024096
:101E4000FFFFFEFFFFFFFBFFFFE0FFFFFF1FFFFFA6
:101E5000C855000860000020FFFEFFFF0070004032
:101E6000FFFBFFFF0025D3E75D4A116880235B007D
:101E70000B431360FEF748FE0600594B1B68DB0559
:101E8000CAD4FEF741FE801B6428F6D90320A2E0E5
:101E9000544A116D80235B000B431365A368002B2C
:101EA00028D0FEF731FE06004E4B1B6D9B0530D44B
:101EB000FEF72AFE801B4C4B9842F5D903208AE09E
:101EC000A022D200934209D0464B1A6D47490A40DE
:101ED0001A651A6D46490A401A65DFE7414B196DCC
:101EE000013AFF3A0A431A65196D802252000A43EB
:101EF0001A65D3E7FEF708FE06003A4B1B6D9B05FB
:101F000007D5FEF701FE801B374B9842F5D9032019
:101F100061E0012D1DD0636A002B5BD0314AD1688E
:101F20000C220A400C2A58D0022B18D02D4A1368D4
:101F300030490B401360FEF7E7FD0400294B1B6896
:101F40009B013FD5FEF7E0FD001B0228F6D90320D8
:101F500041E0244A936B28490B409363DBE7214A15
:101F6000136824490B401360FEF7CEFD05001D4B9E
:101F70001B689B0106D5FEF7C7FD401B0228F6D95A
:101F8000032028E01749CB681C4A1340A26AE06A84
:101F90000243206B02431343CB600A6880235B0437
:101FA00013430B60FEF7B0FD04000E4B1B689B0152
:101FB00006D4FEF7A9FD001B0228F6D903200AE08B
:101FC000002008E0002006E0012004E0012002E0FB
:101FD000012000E0002002B070BD0120FBE7C046F8
:101FE000007000400010024088130000FFFEFFFF59
:101FF000FFFBFFFFFFFFFFFEFFFFFFEFFFFF02FF03
:1020000010B5264BD9680C230B40082B42D00C2B63
:1020100011D0042B09D0214B5A68520B07231340CF
:10202000013380200002984010BD1C4B1B68DB066A
:1020300032D51B48F8E78A0C0F231340194AD05CAD
:10204000890D032211400131144BDB68DB030DD4F1
:10205000124B1B68DB0613D54201121A93019B1A1F
:10206000DB001B181802FEF74FF8DDE74201121AD9
:1020700093019B1ADB001B185802FEF745F8D3E7C3
:102080004201121A93019B1ADB001B189802FEF7FB
:102090003BF8C9E70448C7E70448C5E70010024019
:1020A00000093D00BC55000800127A000024F4002D
:1020B00070B504000D005F4B1A68012313408B427A
:1020C0000BD25C490B68012293432B430B600B68D6
:1020D0001A40AA4201D0012070BD23689B0706D593
:1020E000554AD368F0218B43A1680B43D360236822
:1020F000DB0764D56368022B09D0032B29D0012BA1
:102100002DD04D4A1268920506D40120E4E74A4AD0
:102110001268920300D48AE04749CA6803208243C8
:102120001343CB60FEF7F0FC06006368022B1CD063
:10213000032B28D0012B34D03F4BDB680C221A42F2
:102140003DD0FEF7E1FC801B3C4B9842F4D90320C4
:10215000C2E7394A12689201DED40120BCE7364A50
:1021600012685207D8D40120B6E7334BDA680C2343
:102170001340082B23D0FEF7C7FC801B2F4B98423F
:10218000F3D90320A8E72C4BDA680C2313400C2B5F
:1021900015D0FEF7B9FC801B284B9842F3D90320D9
:1021A0009AE7254BDA680C231340042B07D0FEF77F
:1021B000ABFC801B214B9842F3D903208CE71D4BCD
:1021C0001A6801231340AB420BD91A490B6801224C
:1021D00093432B430B600B681A40AA4201D00120A5
:1021E0007AE723685B0706D5134AD36814490B4086
:1021F000E1680B43D36023681B0707D50E49CB6802
:10220000104A13402269D2001343CB60FFF7F8FE57
:10221000094BDA6812090F2313400B4AD35CD840EC
:102220000A4B18600020FEF743FC002054E7012011
:1022300052E7C04600200240001002408813000010
:10224000FFF8FFFFFFC7FFFFC85500086000002030
:10225000014B18687047C0466000002010B5FFF7BA
:10226000F7FF044BDA68120A07231340024AD35CD3
:10227000D84010BD00100240D855000810B5FFF737
:10228000E7FF044BDA68D20A07231340024AD35C03
:10229000D84010BD00100240D855000870B50400A9
:1022A00003689B064CD55B4B9B6BDB0000D571E054
:1022B000584A916B80235B050B4393630125564B72
:1022C0001B68DB0568D5534B1968C0239B03194075
:1022D000626813408B4206D0C0239B021100194054
:1022E000994200D16DE04B4B1B6DC02189020B4020
:1022F00015D00A409A4212D023689B060FD5454B51
:10230000186D464A02401E6D80210903314319654C
:10231000196D434E314019651A65C30558D4636879
:10232000C022920219001140914260D039490B6DD0
:10233000C02292026068024013430B65012D60D0F9
:1023400023689B0706D5334AD36C0C218B43A168C5
:102350000B43D36423685B0706D52E4AD36C3149FF
:102360000B40E1680B43D36423681B0706D5294A59
:10237000D36C2D490B4021690B43D36423681B06A2
:1023800045D5244AD36C29490B4061690B43D3647A
:10239000002070BD002592E71F4A116880235B0072
:1023A0000B431360FEF7B0FB06001B4B1B68DB05FD
:1023B00000D588E7FEF7A8FB801B6428F5D9032029
:1023C000E7E7144B1B689B0300D48CE70120E0E790
:1023D000FEF79AFB06000F4B1B6D9B059FD4FEF783
:1023E00093FB801B124B9842F5D90320D1E7094992
:1023F0000A6810480240C0208003034013430B606A
:1024000094E70A008B6B0C490B40936398E700201C
:10241000BFE7C0460010024000700040FFFFFCFF15
:10242000FFFFF7FFFFF3FFFFFFCFFFFFFFFFF3FF0C
:1024300088130000FFFFCFFFFFFFFFEF10B5042858
:1024400061D019D9082800D183E0202800D09CE071
:10245000544B196D1B6DC022920213408022520210
:10246000934219D08022920293421AD0C022920243
:1024700093421AD0002089E0022800D085E0494B21
:10248000DA6C0C2313402CD0082B2DD0042B31D028
:102490000C2B32D0002079E08A05E3D580200002A1
:1024A00074E08A07E2D5404870E03E4B1B689B030E
:1024B00000D46CE03B4B1B68C02292031340802287
:1024C0009203934265D0C0229203934205D08022AA
:1024D0005203934203D0354858E0354856E035481A
:1024E00054E0FFF7BBFE51E02E4A12685207CDD5EB
:1024F00031484BE0FFF784FD48E02A4B1B6D9B05FC
:1025000049D4002042E0274BDB6CC022120113406B
:102510000DD08022120193420CD08022D20093422F
:102520000ED0C022120193420DD000202EE0FFF702
:1025300095FE2BE01B4A12685207EED51E4825E097
:10254000FFF75EFD22E0174B1B6D9B0526D4002094
:102550001CE0144BDB6CC0229201134009D0802296
:102560009201934208D08022520193420AD0002067
:102570000CE0FFF773FE09E00A4A12685207F2D531
:102580000D4803E0FFF73CFD00E0002010BD0020F7
:10259000FCE70A48FAE780200002F7E78020000203
:1025A000F4E7C046001002408890000000093D009A
:1025B00020A1070080841E000024F40040420F0088
:1025C00070B504000268D368A0218B43D360FEF786
:1025D0009BFA05002368DB689B0608D4FEF794FA93
:1025E000401BFA239B009842F4D9032000E000200E
:1025F00070BD70B504000368DA68520601D500208A
:1026000070BD01225242DA60FEF77EFA05002368AF
:10261000DB685B0608D4FEF777FA401BFA239B00C1
:102620009842F4D90320EBE70020E9E770B5041ED7
:102630004ED02123C35C002B3CD021230222E25444
:102640002368C8325A622368773A5A622000FFF73B
:10265000D0FF002834D1226893681E490B40936054
:1026600021688A68636825692B43A5692B43134356
:102670008B602368E2681A6121680B69A268120402
:1026800013430B612268D36880218B43D360226897
:10269000D36C7D398B43D3642168CB6CE269656967
:1026A0002A431343CB642368FF225A622123FE3A54
:1026B000E25470BD20330022C25402F06FFDBCE72B
:1026C0002368FF225A622123FB3AE2540120F0E7FB
:1026D0000120EEE7BFFF8FFF002302E001330A383D
:1026E000C0B20928FAD81B01DBB2184370470000BA
:1026F000F8B504000E002023C35C012B00D178E064
:1027000020230121C15401330131C154002A43D196
:1027100003689B685B0601D40023F3703078FFF7F1
:10272000DBFF05047078FFF7D7FF00020543B078A0
:10273000FFF7D2FF0543F078000405432368CA225F
:102740005A622368773A5A622000FFF752FF071E49
:1027500033D12368284805401D60226893682749C3
:102760000B40936021688B68F26830690243134321
:102770008B602268D36880218B43D36023689B6879
:102780009B0626D52368FF225A622123FE3AE25493
:10279000013B0022E2541AE003689B685B0601D407
:1027A0000023F37035782D04707800020543B0786B
:1027B0000543F07800040543C0E72368FF225A620E
:1027C0002123FB3AE254013B0022E2540127380066
:1027D000F8BD2000FFF7F4FE0028D3D02368FF22C5
:1027E0005A622123FB3AE254013B0022E2540127C2
:1027F000EDE70227EBE7C0467F7F7F00FFFFFBFF8F
:1028000070B504000E002023C35C012B69D0202387
:102810000121C15401330131C154002A06D173781A
:10282000D90603D510218B430A337370002A31D1A6
:10283000F078FFF751FF05047078FFF74DFF0002B5
:102840000543B078FFF748FF054330784003054360
:102850002368CA225A622368773A5A622000FFF737
:10286000C8FE061E21D123681F4805405D6022680E
:10287000D36880218B43D36023689B689B0620D557
:102880002368FF225A622123FE3AE254013B0022D0
:10289000E25414E07378B078F5782D041B021D43E0
:1028A0000543307840030543D2E72368FF225A628C
:1028B0002123FB3AE254013B0022E254012630007E
:1028C00070BD2000FFF77CFE0028D9D02368FF22CE
:1028D0005A622123FB3AE254013B0022E2540126D2
:1028E000EDE70226EBE7C0463FFFFF00F8B5040026
:1028F0000E0015002023C35C012B00D177E02023BC
:102900000122C25401330132C2540368C8325A62F0
:102910000368773A5A6203689B685B0518D5FEF72F
:10292000F3F807002368DB685B0711D5FEF7ECF8C6
:10293000C01BFA239B009842F4D92368FF225A62F5
:102940002123FC3AE254013B0022E25403204DE0F3
:102950002268936827490B4093602168CA68FF2367
:102960001A40254B1343CB60FEF7CEF807002368CF
:10297000DA68520711D4FEF7C7F8C01BFA239B0090
:102980009842F4D92368FF225A622123FC3AE25488
:10299000013B0022E254032028E05E612268936834
:1029A00007218B439360226893681D439560134B06
:1029B0001968802252031143196099680A439A608A
:1029C000226891688023DB010B4393602268916841
:1029D0008023DB000B4393602368FF225A6221238C
:1029E000FE3AE254013B0022E2540020F8BD0220EE
:1029F000FCE7C046FFFBFFFF7FFBFFFF0004014039
:102A000070B504002023C35C012B38D020230122A1
:102A1000C25401330132C2540368C8325A62036897
:102A2000773A5A620268936816490B4093600268CD
:102A3000936815490B409360FEF766F8050023681C
:102A4000DA68520711D4FEF75FF8401BFA239B00A7
:102A50009842F4D92368FF225A622123FC3AE254B7
:102A6000013B0022E254032008E0FF225A622123A6
:102A7000FE3AE254013B0022E254002070BD0220E5
:102A8000FCE7C046FFFBFFFFFFBFFFFF036880229C
:102A9000D205904205D0104A904202D00F4A90428F
:102AA00003D1702293434A6813438022D205904297
:102AB00005D0094A904202D0084A904203D1084A00
:102AC0001340CA68134303608B68C3620B68836258
:102AD000012343617047C0460008014000140140D3
:102AE000FFFCFFFF30B5036A012293430362036AD0
:102AF000446882697325AA430D682A430225AB43C3
:102B00008D682B43446082614A684263036230BD32
:102B100030B5036A102293430362036A45688269F1
:102B2000084C14400A68120222432024A3431C00CC
:102B30008B681B012343456082614A68826303629C
:102B400030BDC046FF8CFFFF30B5036A0A4A134010
:102B50000362036A4568C2697324A2430C68224376
:102B6000064C1C408B681B0223434560C2614A68C7
:102B7000C263036230BDC046FFFEFFFFFFFDFFFFE3
:102B800030B5036A0A4A13400362036A4568C269A2
:102B9000084C14400A6812022243074C1C408B6800
:102BA0001B0323434560C2614A680264036230BD6F
:102BB000FFEFFFFFFF8CFFFFFFDFFFFF30B5036A72
:102BC000046A0125AC4304628469EF35AC43120109
:102BD00022430A24A34319438261016230BD0000ED
:102BE00030B5036A1024A34303628469036A054D68
:102BF0002C4012032243A024A343090119438261FC
:102C0000016230BDFF0FFFFF8368702293430722EC
:102C1000114319438160704730B58468034D2C40DF
:102C20001B021A4311432143816030BDFF00FFFFA7
:102C300010B501248C40036AA3430362036A8A40EF
:102C40001A43026210BD70B5041E14D03523C35C54
:102C5000002B0AD0352502236355211D2068FFF77C
:102C600015FF01236355002070BD34330022C25488
:102C700002F0A4FAEEE70120F6E710B535220223B0
:102C800083540468236801210B432360815400208E
:102C900010BD0368DA6801210A43DA60026813682C
:102CA0000B431360002070470268D36801218B43F7
:102CB000D3600368196A044A114203D11A680121DA
:102CC0008A431A600020704711110000704770B5E8
:102CD000041E14D03523C35C002B0AD035250223F3
:102CE0006355211D2068FFF7D1FE012363550020A5
:102CF00070BD34330022C254FFF7E8FFEEE7012035
:102D0000F6E710B5040001220068FFF791FF226882
:102D1000136801210B431360002010BD70B504003F
:102D20000D003423C35C012B69D034230121C1542D
:102D300001330131C154042A37D019D9082A4AD0A5
:102D40000C2A2AD129000068FFF71AFF2268D169EE
:102D500080231B010B43D3612268D36929490B40AF
:102D6000D3612168CB69EA6812021343CB6114E096
:102D7000002A12D129000068FFF7B4FE2268936987
:102D800008210B4393612268936904398B43936153
:102D900022689369E9680B43936135230122E25469
:102DA000013B0022E254002070BD29000068FFF7BB
:102DB000AFFE2268916980231B010B439361226857
:102DC000936910490B40936121688B69EA6812028C
:102DD00013438B61E1E729000068FFF7B5FE226825
:102DE000D36908210B43D3612268D36904398B432B
:102DF000D3612268D369E9680B43D361CDE7022030
:102E0000D2E7C046FFFBFFFF10B504003423C35CCC
:102E1000012B00D17FE034230122C254013301325F
:102E2000C254026893683D48034093600B68402B8E
:102E30005DD010D9702B43D020D8502B4DD0602BB3
:102E400036D1CA6849682068FFF7CAFE6021206849
:102E5000FFF7DAFE2CE0102B53D008D9202B55D0E9
:102E6000302B25D130212068FFF7CEFE20E0002B4B
:102E70001ED100212068FFF7C7FE19E08022520111
:102E8000934210D080229201934211D1CB684A68BC
:102E900089682068FFF7C0FE226891688023DB0103
:102EA0000B43936004E02268936807218B4393608F
:102EB00035230122E254013B0022E254002010BDE0
:102EC000CB684A6889682068FFF7A6FE2268936885
:102ED00077218B430B439360EAE7CA68496820680F
:102EE000FFF76CFE50212068FFF78EFEE0E7CA680E
:102EF00049682068FFF762FE40212068FFF784FEE2
:102F0000D6E710212068FFF77FFED1E72021206857
:102F1000FFF77AFECCE70220D1E7C0468800FFFF2A
:102F20007047704770477047704710B504000368DA
:102F30001A6992070FD5DA6892070CD5032252421C
:102F40001A610123037503689B699B0755D0FFF73E
:102F5000E9FF0023237523681A69520712D5DA683E
:102F600052070FD5052252421A61022323752368A6
:102F70009A69C0239B001A4245D02000FFF7D2FF78
:102F80000023237523681A69120710D5DA6812071F
:102F90000DD5092252421A61042323752368DB6987
:102FA0009B0737D02000FFF7BDFF00232375236860
:102FB0001A69D20612D5DA68D2060FD5112252420A
:102FC0001A61082323752368DA69C0239B001A421B
:102FD00027D02000FFF7A6FF0023237523681A6976
:102FE000D20702D5DA68D20722D423681A695206BA
:102FF00002D5DA68520622D410BDFFF792FF2000F6
:10300000FFF791FFA5E72000FFF78BFF2000FFF7F8
:103010008AFFB5E72000FFF784FF2000FFF783FF5A
:10302000C3E72000FFF77DFF2000FFF77CFFD3E719
:10303000022252421A612000FFF772FFD5E74122B7
:1030400052421A612000FFF76FFFD5E7F0B5342335
:10305000C35C012B1ED03422012585543524022364
:103060000355066873687027BB437360066873680E
:103070000F683B4373600668B3688027BB43B36047
:103080000668B36849680B43B36005550023835451
:103090000020F0BD0220FCE7F8B504000168836859
:1030A0000269134342691343C26913430A68AD4876
:1030B000024013430B6022685368AB490B40E16840
:1030C0000B435360A1692268A84B9A4201D0236A3E
:1030D00019439368A64803400B4393602368A54AAD
:1030E000934216D0A14A934228D010250220FFF720
:1030F000A5F926689D4B9E4240D080231B02E269C1
:103100009A4276D0082D00D92AE1AD009A4B5B593E
:103110009F469A4BDA6C0C231340042B0AD005D936
:10312000082B27D00C2B07D10825DFE7002B03D174
:103130000025DBE70425D9E71025D7E78F4BDB6CAB
:10314000C022120113408022D20093420ED009D92E
:103150008022120193420FD0C0221201934207D164
:103160000825C3E7002B03D10025BFE70425BDE7F1
:103170001025BBE70225B9E70225B7E7022D2DD0C0
:1031800007D9042D30D0082D00D0DFE080200002C8
:1031900007E0002D00D0D9E0FFF760F8002800D14B
:1031A000D6E0626853009B18834200D9D2E0130333
:1031B000834200D2D0E0070E060250080021801999
:1031C00079410023FDF766F86D4BC2186D4B9A42AA
:1031D00000D9C3E02368D860002022E0674B1B6859
:1031E000DB0604D46848DCE7FEF70AFFD6E7674849
:1031F000D7E7082D54D8AD00654B5B599F4640007A
:1032000063685B08C0186168FCF77EFF83B200202A
:103210000F22190091435B10083A13400B432268B8
:10322000D360F8BDFFF72AF8400063685B08C01858
:103230006168FCF769FF83B20020E9E74F4B1B6828
:10324000DB060AD563685808524B9C4660446168A7
:10325000FCF75AFF83B20020DAE7636858084E4B48
:103260009C4660446168FCF74FFF83B20020CFE7C3
:10327000FEF7C6FE400063685B08C0186168FCF793
:1032800043FF83B20020C3E76368580880235B02D2
:103290009C4660446168FCF737FF83B20020B7E7C3
:1032A00001200023B4E7FEF7D9FF63685B08C0186C
:1032B0006168FCF729FF23680004000CD860002037
:1032C000AFE7FEF7DBFF63685B08C0186168FCF7D7
:1032D0001BFF23680004000CD8600020A1E7274BE7
:1032E0001B68DB060BD561684808284B9C46604488
:1032F000FCF70AFF0004000CF060002091E7616811
:103300004808214B9C466044FCF7FEFE0004000C7C
:10331000F060002085E7FEF773FE63685B08C01865
:103320006168FCF7F1FE23680004000CD8600020FF
:1033300077E76168480880231B029C466044FCF7DD
:10334000E3FE0004000CF06000206AE7012068E75B
:10335000002066E7012064E7012062E7012060E7C2
:1033600001205EE7F369FFEFFFCFFFFF0048004059
:10337000FFF4FFFF00440040985400080010024092
:1033800000FDFFFFFFFC0F000024F40000093D00DA
:10339000BC54000800127A000048E801436ADB07C9
:1033A00006D5026853682C490B40816A0B43536071
:1033B000436A9B0706D50268536828490B40C16AD7
:1033C0000B435360436A5B0706D502685368244980
:1033D0000B40016B0B435360436A1B0706D5026821
:1033E000536820490B40416B0B435360436ADB0633
:1033F00006D5026893681C490B40816B0B439360B0
:10340000436A9B0606D50268936818490B40C16B56
:103410000B439360436A5B060BD5026853681449FB
:103420000B40016C0B43536080235B03026C9A4298
:103430000AD0436A1B0606D5026853680D490B4043
:10344000816C0B4353607047026853680A490B4014
:10345000416C0B435360ECE7FFFFFDFFFFFFFEFFF6
:10346000FFFFFBFFFF7FFFFFFFEFFFFFFFDFFFFF20
:10347000FFFFEFFFFFFFF7FFFFFF9FFFF0B5C6461F
:1034800000B506000C0017009846069D3368DB69FE
:1034900023401B1B5A425341BB421ED16B1CF5D02B
:1034A000002D05D0FDF730FB4346C01AA842EDD9E8
:1034B000326813680B490B40136032689368A3317C
:1034C000FF318B43936020236922B3540132B354FC
:1034D00048330022F254032000E0002004BC904650
:1034E000F0BDC0465FFEFFFF30B583B0040000238F
:1034F000C366FDF709FB050023681B681B070ED494
:1035000023681B685B0717D420236922A354013268
:10351000A35448330022E254002003B030BD802180
:103520000C4B00930300002289032000FFF7A6FF45
:103530000028E5D00320F0E78021064B00932B0004
:103540000022C9032000FFF799FF0028DCD00320E8
:10355000E3E7C046FFFFFF0110B5041E30D069232A
:10356000C35C002B22D069232422E2542268136812
:1035700001218B431360636A002B1DD12000FFF7EC
:103580008BFD012811D0226853680E490B4053600F
:10359000226893682A218B43936022681368293933
:1035A0000B4313602000FFF79FFF10BD683300221C
:1035B000C25401F053FED6E72000FFF7EFFEDDE72F
:1035C0000120F2E7FFB7FFFF002303724422835478
:1035D00070470023036170470A2303700022426092
:1035E000837070470E2303700023436070470023ED
:1035F00003704360704700230370436070470023EB
:1036000003704360704700230370436070470023DA
:1036100003704360704700230370436070470023CA
:1036200003704360704700230370436070470023BA
:1036300003704360704700230370436070470023AA
:1036400003704360704710B50378042B0CD006D983
:10365000052B0CD0062B06D1FFF7D5FF03E0032B7B
:1036600001D1FFF7C4FF10BDFFF7C5FFFBE7FFF770
:10367000C6FFF8E710B5FFF7E6FF10BD10B50378F9
:10368000083BDAB2052A05D893000A4AD3589F4668
:10369000FFF7BDFF10BDFFF7BEFFFBE7FFF7BFFF62
:1036A000F8E7FFF7C0FFF5E7FFF7C1FFF2E7FFF725
:1036B000C2FFEFE7E054000810B50400FFF7DEFF9B
:1036C0002000FFF786FF10BD0020704710B50C1ECC
:1036D00004D0FFF7F9FF002800D10024200010BD1E
:1036E00010B50C1E04D0FFF7EFFF002800D1002416
:1036F000200010BD10B5010044310123822200F0EA
:1037000075FC10BD10B50400FFF7F4FF0123237012
:103710000023636010BD10B5FFF7F4FF10BD10B5B6
:10372000FFF7F9FF10BD10B50400FFF7A3FF20005D
:10373000FFF7E8FF10BD10B5FFF7F5FF10BD70B53E
:1037400005000C1E03D0FFF7C1FF002801D02000A8
:1037500070BD2800FFF757FF00236B612B62280024
:10376000FFF7E9FFF3E710B50400FFF7A5FF20001E
:10377000FFF7C8FF10BD10B5FFF7F5FF10BD70B51E
:1037800005000C1E03D0FFF7ABFF002801D020007E
:1037900070BD2800FFF74BFF2800FFF7ECFFF6E7AE
:1037A00010B5040001F032F8606210BD10B50400DD
:1037B000FFF7F6FF0323237000226260637010BDE1
:1037C00010B5FFF7F3FF10BD10B5FFF7F9FF10BDFF
:1037D00010B5FFF7F9FF10BD10B5040000F022FC92
:1037E0000123A36110BD10B50400FFF7F5FF04230A
:1037F000237000226260637010BD70B505000C1E5E
:1038000003D0FFF763FF002801D0200070BD28001F
:10381000FFF7EDFE2800FFF7E6FFF6E710B504001E
:1038200001F010F8A06210BD10B50400FFF7F6FF1C
:103830000523237000226260637010BD70B505001F
:103840000C1E03D0FFF742FF002801D0200070BDFE
:103850002800FFF7D0FE01232B622800FFF7E4FFCA
:10386000F4E710B500F0ECFB10BD10B50400FFF755
:10387000F8FF0B23237000226260A37010BD10B507
:10388000040000F0DDFBA26A616A200000F0B6FED1
:103890000023A36110BD10B50400FFF7F0FF06235D
:1038A000237000226260637010BD10B54378042B52
:1038B0000CD006D9052B0CD0062B06D1FFF7EBFF59
:1038C00003E0032B01D1FFF771FF10BDFFF78BFF62
:1038D000FBE7FFF7A9FFF8E710B54378002B02D10B
:1038E000FFF764FF10BDFFF7E0FFFBE770B50500D1
:1038F0000C1E0CD0FFF7EAFE002808D12B6A012B22
:1039000007D02800FFF77BFE2800FFF7C4FF200048
:1039100070BD2800FFF773FE2800FFF785FFF6E76C
:1039200010B5040000F078FBA06310BD10B50400D2
:10393000FFF7F6FF0823237000226260A37010BD1A
:1039400010B5FFF7F3FF10BD10B5FFF7F9FF10BD7D
:1039500010B5FFF7F9FF10BD70B505000C1E10D0B3
:10396000FFF7BEFE00280CD12B6B6A6A93420ADB7C
:10397000AB69012B12D02800FFF74DFE2800FFF79E
:10398000D5FF200070BD2800FFF745FE280000F09D
:1039900049FBA8612800FFF71FFEF2E72800FFF7A8
:1039A0003AFE2800FFF718FEEBE770B505000C1E85
:1039B00003D0FFF795FE002801D0200070BD28003D
:1039C000FFF731FE2800FFF7B1FFF6E710B504005E
:1039D00000F02AFF206310BD10B50400FFF7F6FFCA
:1039E0000923237000226260A37010BD10B501216D
:1039F00000F06AFB10BD10B50400FFF7F7FF0C23C1
:103A0000237000226260A37010BD70B505000C1E0B
:103A100010D0FFF765FE00280CD1AB6BEA6B934228
:103A20000ADC6B69012B0ED02800FFF7F0FD28009F
:103A3000FFF7D2FF200070BD2800FFF7E8FD280047
:103A4000FFF7D9FFF6E72800FFF736FE280000F061
:103A5000F7FA0023AB6102336B61013B2B62280054
:103A6000FFF7B6FEE6E710B5040000F0E9FA200023
:103A700000F0FEFA10BD10B50400FFF7F4FF0D23AF
:103A8000237000226260A37010BD000010B583781F
:103A9000083BDAB2052A05D893000A4AD3589F4654
:103AA000FFF744FF10BDFFF797FFFBE7FFF794FD1B
:103AB000F8E7FFF7DAFEF5E7FFF79DFFF2E7FFF71C
:103AC000DAFFEFE7F854000810B58378002B02D135
:103AD000FFF72CFF10BDFFF7D9FFFBE710B5010082
:103AE000443100F091FA10BD10B50023037043601B
:103AF000FFF7F4FF10BD70B505000C1E12D0FFF7E4
:103B0000E3FD00280ED16B69012B0DD0022B14D0E0
:103B10002B69002B18D04422AA5C002A1DD1022B4D
:103B200022D00024200070BD2800FFF7DDFF022313
:103B30006B612800FFF74CFEF4E72800FFF7D4FF85
:103B40002800FFF7C9FEEDE72800FFF7CDFF0123AE
:103B50002B612800FFF7FCFEE4E72800FFF7C4FF15
:103B60002800FFF7B1FFDDE72800FFF7BDFF2800C1
:103B7000FFF738FDD6E7000010B5040003780E2BE0
:103B800005D89B001C4AD3589F46FFF7ADFF10BDD8
:103B9000FFF72DFDFBE7FFF72EFDF8E7FFF72FFD01
:103BA000F5E7FFF730FDF2E7FFF731FD2000FFF703
:103BB00010FDECE7FFF72FFD2000FFF70AFDE6E719
:103BC000FFF72DFD2000FFF704FDE0E7FFF72BFDD9
:103BD0002000FFF7FEFCDAE7FFF729FD2000FFF7E2
:103BE000F8FCD4E7FFF727FD2000FFF7F2FCCEE753
:103BF000FFF725FDCBE7C0461055000870B505005E
:103C00000C1E15D0FFF76CFD002811D16B69012B3C
:103C100010D02A6BAB6A9A4202DAA969012919D03D
:103C20009A4226DA2800FFF7FAFC2800FFF723FF64
:103C3000200070BD2800FFF73FFD280000F000FACB
:103C40000023AB6102336B61013B2B622800FFF75D
:103C5000BFFDEDE7696BE86A8142E1DA2800FFF712
:103C6000DEFC280000F004FE28632800FFF7B4FC07
:103C7000DEE72800FFF7D3FC0023AB612800FFF745
:103C8000F4FDD5E770B504000023002B01DD00230F
:103C900007E00022E2540133F7E7E21800215170F7
:103CA0000133012BF9DD002565602000FFF78CFC56
:103CB00025616561A561E56125626562A562E562D0
:103CC00025636563A563E563256470BD10B5FFF7E3
:103CD00026FD10BD10B504000023436006E001215D
:103CE0002000FFF708FF6368013363606368002BFF
:103CF00033D1E35C0C2BF6D89B001A4AD3589F466D
:103D000001212000FFF779FDEDE701212000FFF7F9
:103D100095FDE8E701212000FFF7E8FDE3E7012139
:103D20002000FFF70CFDDEE701212000FFF76DFE0C
:103D3000D9E701212000FFF70FFED4E70121200081
:103D4000FFF75CFFCFE701212000FFF72EFECAE757
:103D500001212000FFF713FDC5E72000FFF734FC29
:103D600010BDC0464C5500080E295DD889002F4B68
:103D70005B589F460078013843425841C0B27047B3
:103D80000378023BDBB2002004229A424041C0B2D9
:103D9000F5E70078033843425841C0B2EFE70078B6
:103DA000043843425841C0B2E9E70078053843423D
:103DB0005841C0B2E3E70078063843425841C0B2E8
:103DC000DDE70378073BDBB2002006229A42404140
:103DD000C0B2D4E70078083843425841C0B2CEE7B9
:103DE0000078093843425841C0B2C8E700780A3821
:103DF00043425841C0B2C2E700780B3843425841B1
:103E0000C0B2BCE700780C3843425841C0B2B6E7B4
:103E100000780D3843425841C0B2B0E700780E3800
:103E200043425841C0B2AAE70020A8E780550008E5
:103E3000416170470162704741627047816270471B
:103E4000C162704741637047C163704710B54369F1
:103E50009B68C1680069984710BDF0B5C64600B5BB
:103E600006AC2478A44600240568A5421CDD650044
:103E70002D19EE0037004568A8464644F568002D28
:103E800001D00134F0E7F2604268D3514368DB1996
:103E900062461A714368DB1919614368DB1958617E
:103EA0004368DF190023BB6004BC9046F0BD30B509
:103EB000002302689A4210DD5A00D218D40025006F
:103EC000426894466444E2688A4201D00133F0E7D4
:103ED0000021E16043685D19296130BDF8B5060035
:103EE0000F00002400E001343368A34220DD6300AA
:103EF0001B19DD0073685B19DA68002AF3D09A6831
:103F000019688A42EFDAD2199A607368581983687F
:103F100002689342E7DBFFF799FF73689C466544AC
:103F20002B79002BDFD0AB682A689B1AAB60DAE7ED
:103F3000F8BD0000F0B589B01E4BDA6A01252A43AE
:103F4000DA62DA6A2A400192019AD96A022211439E
:103F5000D962DB6A1A400292029B88246400A02680
:103F6000F605002221003000FDF747FC124F002229
:103F700008213800FDF741FC0394049500240594C2
:103F8000069503A93000FDF771FBF6235B0103934F
:103F90000494059403A93000FDF768FB08230393FC
:103FA00004950594069403A93800FDF75FFB09B05A
:103FB000F0BDC046001002400004005000B583B0C0
:103FC000094A116B012319431163126B13400193CA
:103FD000019B002200210920FDF794F80920FDF73C
:103FE000C1F803B000BDC0460010024000B583B068
:103FF000009313000A0001000248FFF72EFF03B0F0
:1040000000BDC0468000002010B50248FFF74FFFFA
:1040100010BDC04680000020014B1B681868704727
:104020000000002010B5054B00221A60A0200132CC
:104030001021C005FDF7E1FB012010BD5803002051
:1040400010B5084B1A68084B1A60A02000221021F6
:10405000C005FDF7D2FB054B5A689B6812681A60D1
:10406000002010BD58030020C000002000000020E8
:1040700010B5104B1B68104AD268DA63FCF744FD98
:104080000400FCF741FD001B0C4B9842F9D9094B89
:104090001B680022DA63FCF737FD0400FCF734FDEF
:1040A000001B064B9842F9D9054B1B68054A1A605C
:1040B000DFE7C04608020020000000205702000091
:1040C00010010020AAAA000010B50E4AD1680E4BBC
:1040D0001B68D9631169596352699A630B4C2000BC
:1040E000FEF78EFC0A4A136804210B431360094B48
:1040F00000221A6008492000FEF7F8FBFDF7AEFC2D
:1041000010BDC0468000002008020020D801002019
:104110000070004010E000E0FFFF000010B50B4B06
:1041200019680B4C2000FFF789FE0A4B1968200024
:10413000FFF782FE084B19682000FFF781FE074B4E
:1041400019682000FFF780FE10BDC04694010020D2
:10415000C80000208C010020C00000201C000808BE
:1041600084B000230393029324E06B460022DA71AB
:10417000039A52006B4607331B789B180393013157
:104180001F290BDC6B460A22DA71A023DB051B69B1
:104190001B06EAD56B46093ADA71E9E7029B01335F
:1041A0000293039B013302D0039B002B02D1029B9D
:1041B000022B01D90021E3E7039B013307D06B46B3
:1041C0000022DA716B46D879C0B204B070476B46F2
:1041D0000122DA71F6E7000010B5FFF7C1FF0128F0
:1041E0000CD0A0208021C005FDF700FB002804D1E1
:1041F000284B9B691B68012B2CD010BD9F30802160
:10420000C005FDF7F3FA0128F7D1224B9B691B6823
:10421000002BF2D1FCF778FC0400FCF775FC001BC6
:104220003128FAD9A0208021C005FDF7DFFA012846
:10423000E3D1184B9B691A68002ADED101321A605B
:10424000154C01212000FFF7F5FD01212000FFF7AB
:10425000EFFDD2E7FCF758FC0400FCF755FC001B0F
:104260003128FAD9A0208021C005FDF7BFFA002827
:10427000C3D1084B9B691A68012ABED100221A607B
:10428000054C00212000FFF7D5FD00212000FFF79D
:10429000CFFDB2E700000020C800002070B58025E7
:1042A0006D00A024E405012229002000FDF7A5FAF5
:1042B0000120FCF72FFC002229002000FDF79DFAC9
:1042C00096208000FCF726FC70BD10B58021A02050
:1042D00001224900C005FDF790FA10BD70B5FFF747
:1042E000DDFF594AD16900230B60116A0B60516AE6
:1042F0000B60916A0B60D16A0B60126B1360534BB9
:10430000534A1A6045E00133172B21DC51490A68F2
:1043100052000A6050490A6852000A604F490A6810
:1043200052000A609A004E495258910503D54948F7
:10433000016801310160510503D547480168013129
:1043400001601205DFD545490A6801320A60DAE7E3
:104350003D4B186A01688022120451400160586A7E
:10436000016851400160996A086842400A601A6A0F
:1043700011685B6B99422AD900231360394A93690B
:10438000013393610221374A536A01335362022990
:1043900039DC2E4B2E4A1A60A023DB051A69F02364
:1043A0005B011A42F5D13048FEF773FC264BDB69FE
:1043B0001B68332BFAD90023264A1360264A136060
:1043C000264A1360214B224A1A6000239CE71E4AAA
:1043D000526A11688B4207D200231360214AD369C5
:1043E0000133D3610221CEE7174A926A11688B42EA
:1043F00007D2002313601B4A136A013313620221A0
:10440000C1E70321BFE7104C236A1868636A1B6881
:10441000C018A36A1B68C0186568FBF775FE2860A2
:10442000A3681A68002A02D1626812681A600649F5
:104430008A68106843011B1A496809685B185B09A0
:104440001360FFF742FF70BD000000200030004005
:10445000AAAA0000B002002024010020FC010020D4
:1044600028010020800000205C030020264B1B68F0
:10447000264A1A60264B00221A85264B9B69DB07C9
:10448000FBD4244B5B68DB0704D5224B224ADA605D
:10449000224ADA601F4A5168C0239B020B435360D3
:1044A0001F4B996B1F4A116030BF12689B6B9A4279
:1044B00004D0174A138D08210B431385184BD96B71
:1044C000194A116030BF1268DB6B9A4204D0104A5F
:1044D000138D08210B431385114B196C134A11607E
:1044E00030BF12681B6C9A4204D0094A138D082110
:1044F0000B431385074B9B69DB07FBD4054A5368C5
:1045000001210B435360704710010020AAAA00004C
:104510008000002000200240EFCDAB89050403029B
:104520000000002014000808180008081C000808F3
:10453000264B1B68264A1A60264B00221A85264BFA
:104540009B69DB07FBD4244B5B68DB0704D5224B5C
:10455000224ADA60224ADA601F4A5168C0239B026D
:104560000B4353601F4B19681F4A116030BF12681C
:104570001B689A4204D0174A138D08210B431385F8
:104580001A4B19681A4A116030BF12681B689A42A8
:1045900004D0104A138D08210B431385154B19685D
:1045A000154A116030BF12681B689A4204D0094A4C
:1045B000138D08210B431385074B9B69DB07FBD445
:1045C000054A536801210B435360704710010020D6
:1045D000AAAA00008000002000200240EFCDAB8995
:1045E000050403028C01002000000808940100204B
:1045F00004000808C00000200800080810B5074B98
:104600001960074B1A60074C23685B002360FFF7B3
:104610008FFF21680448FFF713FC10BD8C010020B8
:1046200094010020C0000020C800002010B50A4BF3
:104630001B68002B03D0094A126893420AD1084B29
:10464000084A596C11605A6B074B1A60FFF770FFEC
:10465000FFF70CFF10BDC046040008081000080852
:10466000000000208C010020940100200B4B1A68F0
:104670000B4B1A600B4B1A680B4B1A600B4B1A68EA
:104680000B4B1A600B4B1A680B4B9A630B4A126860
:10469000DA630B4A12681A647047C04600000808C3
:1046A0008C0100200400080894010020080008087C
:1046B000C0000020140008080000002018000808AE
:1046C0001C00080810B51C00431A0298001B584330
:1046D000511AFBF719FD001910BD0000F0B583B0A9
:1046E000404B9B681868404B1B68404A1A60404B1F
:1046F0001968814219D33B4BFE2292059A64394BCB
:10470000986C3C49FBF7A8FD002821D1354B986CEB
:104710003949FBF7A1FD002842D1384B0022DA606D
:104720001A61304A526D5A612FE0354B1A68824245
:1047300003D82C4B334A9A64E1E796235B0000933D
:104740000023FFF7BFFFFCF749F9264B9864D6E733
:10475000244CA16C2748FBF75DFFFBF7BBFDE36C26
:104760000093002396220021FFF7ACFF234DE86061
:10477000A06CFBF7AFFD236D009300239622002170
:10478000FFF7A0FF286100236B611C4AD1681E4B14
:104790001B68D9631169596352699A6303B0F0BD0C
:1047A000164D0023EB600F4C2669A16C1248FBF7F5
:1047B00031FF96277F00FBF78DFD236D00930023CB
:1047C0003A009621FFF77EFF36182E61A06CFBF7AA
:1047D00081FD636D009300233A009621FFF772FF7D
:1047E0006861D2E70000002010010020AAAA0000A2
:1047F00000000808000016430000964380000020D7
:1048000004000808008096430802002010B5FFF756
:1048100065FDFE208005FFF761FF024B5B681868AD
:1048200010BDC0460000002010B5FFF757FDFE2068
:104830008005FFF753FF024B9B68186810BDC04608
:104840000000002010B5FFF749FDFE208005FFF7AE
:1048500045FF044B19680448FFF7F4FA034B5B6803
:10486000186810BD58030020C80000200000002078
:1048700010B5FFF733FDFE208005FFF72FFF074B34
:104880001968074C2000FFF7DBFA064B1968200077
:10489000FFF7D8FA044B5B68186810BD08000808D9
:1048A000C8000020580300200000002030B583B06D
:1048B000314B1B681D68314B1B680024DC635C6353
:1048C0009C636420FCF726F92D490C6001222D48D9
:1048D000FCF7DAFA0120FCF71DF92B4A2B4911608D
:1048E000274A1368002BF8D02949C868234A126860
:1048F000D0630869506349699163002D00D11D00A0
:10490000EA00551B5B191C4C2268DB0813601D482C
:10491000FCF70EFB206C25682B68A16B226CC01A7B
:10492000E36800936423FFF7CDFEE064206C2B68FE
:10493000A16B226CC01A236900936423FFF7C2FEA7
:104940002065206C2B68A16B226CC01A63690093F0
:104950006423FFF7B7FE6065FE208005FFF7BEFE0B
:104960000B4AD168054B1B68D963116959635269B9
:104970009A6303B030BDC04600000020080200204A
:1049800000020020F802002000300040AAAA000027
:1049900080000020394B9B699B0722D4374B9B69D1
:1049A0009B0322D4354B9B69DB0328D4334B9B6993
:1049B0005B052FD4314B9B69DB0535D42F4B9B69AD
:1049C0009B043BD42D4B9B691B0541D42B4B9B690E
:1049D0009B0548D42A4A138D802109010B43138576
:1049E00002E0264B02229A617047254A138D40212E
:1049F0000B431385214B802292029A61F4E7204AEF
:104A0000138D802189000B4313851C4B8022520299
:104A10009A61E9E71A4A138D80210B431385174BDE
:104A20008022D2009A61DFE7154A138D10210B43D3
:104A30001385124B802252009A61D5E7104A138DDC
:104A400020210B4313850D4B802292019A61CBE705
:104A50000B4A138D8021C9000B431385074B80221D
:104A600012019A61C0E7064A138D802149000B4369
:104A70001385024B802292009A61B5E70020024024
:104A800080000020FEE7000000B583B019481A4BF3
:104A90000360002303648022D20542608360C36305
:104AA00001220261C36003624362C362C222FF3219
:104AB00082620363BE3AFF3A426143638361836368
:104AC000C361FCF7F1F800280CD10C4B0093802354
:104AD0005B01019369460748FCF7B6FA002805D147
:104AE00003B000BD06490748FFF7CCFF064905485B
:104AF000FFF7C8FFF8020020002401400002002454
:104B00001E020000E05500082602000010B508480B
:104B1000084B036006234360074BC3608360FCF7C8
:104B200073FE002800D110BD04490548FFF7AAFF15
:104B30001001002000300040FF0F00003302000091
:104B4000E055000800B58BB035488023DB050360D5
:104B50000F23436001338360324BC3600023036142
:104B6000FEF771F800283BD180235B01069306A96C
:104B70002B48FEF749F9002836D12948FEF7A7F857
:104B8000002836D100230493059304A92448FEF796
:104B90005DFA002832D1602300935F3B019300232C
:104BA00002930393002269461D48FEF7B7F80028D8
:104BB00028D102230193042269461948FEF7AEF872
:104BC000002824D103230193082269461448FEF7E4
:104BD000A5F800281FD1124800F012FB0BB000BD51
:104BE00011491248FFF74EFFA32189000F48FFF734
:104BF00049FFA42189000D48FFF744FF0C490B48E9
:104C0000FFF740FFA82189000848FFF73BFF09494B
:104C10000648FFF737FFAB2189000448FFF732FF52
:104C200008020020FF0F000087020000E055000886
:104C300097020000A602000000B587B01D481E4B79
:104C40000360002343607F2282608032C260036180
:104C500043618361C361FDF7E9FC00281CD101A910
:104C600000230B704B708B70CB600B6101221148DD
:104C7000FDF73EFD002813D101236A4613705370DF
:104C800093700023D370012269460A48FDF7B8FDEE
:104C900000280AD107B000BD08490948FFF7F2FE15
:104CA0009B2189000648FFF7EDFE06490448FFF7FF
:104CB000E9FEC046D8010020002800406102000043
:104CC000E05500087502000010B50C480C4B03605D
:104CD000E1235B02436000238360C36003610C2215
:104CE00042618361C36103624362FEF735FC0028C1
:104CF00000D110BD03490448FFF7C4FE4002002064
:104D000000440040DE020000E055000800B587B016
:104D10001748184B0360202343600023836006225A
:104D2000C2600361FDF78FFF002813D180235B0170
:104D3000029302A90E48FEF767F800280ED100235F
:104D40000093019369460A48FEF780F900280AD1CA
:104D500007B000BD08490948FFF794FEB12189005A
:104D60000648FFF78FFE06490448FFF78BFEC04652
:104D70005C03002000080140BF020000E05500086D
:104D8000CB02000010B50B480B4B036000234360BF
:104D9000E02212018260094A426103624362836237
:104DA000FCF762FD002800D110BD05490548FFF75A
:104DB00069FEC04698010020007C0040FFFF000013
:104DC00043020000E055000800B599B02E490B6879
:104DD0002E4A1A4080231B0113430B600A230B93B6
:104DE000093B0E9310220F9210930133149300236A
:104DF00015938023DB0216938023DB0317930BA804
:104E0000FCF77CFE00282FD10F2306930C3B079361
:104E10000023089309930A93012106A8FDF748F996
:104E2000002826D1A22300930023029380239B0213
:104E300001938023DB0205936846FDF72FFA0028D3
:104E40001CD1FDF705FAFA218900FBF75DF9FCF7A3
:104E500093F90420FCF7ACF9012000220021404224
:104E6000FCF750F919B000BDE021FF310848FFF709
:104E700009FEF62149000648FFF704FEFB21490020
:104E80000348FFF7FFFDC04600700040FFE7FFFF4B
:104E9000E055000870B5FBF71FFEFFF795FFFFF721
:104EA00049F8FFF78BF8FFF7EFFDFFF72FFEFFF74D
:104EB00049FEFFF7C1FEFFF707FFFFF727FFFFF7E8
:104EC00061FF6748FDF7E5FE664C2000FDF7D5FE63
:104ED00000212000FDF715FF002804D0AB21490078
:104EE0006148FFF7CFFD04215E48FDF70AFF002867
:104EF00004D0AE2149005C48FFF7C4FD08215948A1
:104F0000FDF7FFFE002804D0B02149005648FFF706
:104F1000B9FDFFF725F901281DD00024534D2800C5
:104F2000FEF7B0FEFFF7A2FBFFF7F8F8FFF7BEFCB5
:104F30002800FEF7CBFE2800FEF7CCFE2800FEF787
:104F4000C9FE2800FEF7C6FEFFF770FBFBF7DCFD8D
:104F50000600002557E0434B1B68454AD268DA63D8
:104F6000FBF7D2FD0400FBF7CFFD001B414B98423D
:104F7000F9D9FFF7F5F80128D0D13A4B1B68002288
:104F8000DA63FBF7C1FD0400FBF7BEFD001B3B2805
:104F9000FAD9FFF78BFCFBF7B7FD040007E0364BAF
:104FA0001B68364A1A60FFF7DBF800280AD0FBF7C7
:104FB000ABFD001B324B9842F1D92A4B1B680022F3
:104FC0005A63ABE7FFF772FC264B1A68284B196946
:104FD00051631A6812681A64FFF748FA294B9C4615
:104FE0006444E4E7FFF762FCFBF78EFD040014E085
:104FF000FFF7F2F8FBF788FD050013E0FBF784FDEF
:10500000801B822824D81C4B1B681C4A1A60FBF7A3
:105010007BFD001B1B4B9842E4D8FBF775FD401B42
:105020006428E5D8124B9B691B68002BE6D1FBF77F
:105030006BFD801B144B9842E5D919001348FEF70D
:105040004DFFFBF761FD06000848FEF743FEDAE777
:10505000FBF75AFD06000548FEF73CFED3E7C046C5
:105060009801002008020020E0550008C800002038
:10507000000000205702000010010020AAAA000032
:105080005FEA000060EA00001405000080000020D4
:1050900000B583B0124B5A6B01210A435A63996BD6
:1050A000802252050A439A630520002200214042D3
:1050B000FCF728F80220002200214042FCF722F8E9
:1050C0000120002200214042FCF71CF8002300933D
:1050D00001936846FCF77AFCFCF7B8FC03B000BD0E
:1050E0000010024070B586B00400194B02689A4265
:1050F00001D006B070BD174A536B8026B60033430B
:10510000536302230193013302930025039501A900
:105110001148FCF7ABFA1148114B036045608560FC
:10512000C56080230361466180231B0183612023C6
:10513000C3610562FCF762F8002803D1074B2365C1
:105140009C62D6E776210748FFF79CFCF6E7C0464D
:10515000002401400010024000040050B80200206A
:1051600008000240F055000810B50268094B9A4249
:1051700000D010BD084A916B80231B060B4393633C
:10518000002201210D20FBF7BDFF0D20FBF7EAFFF8
:10519000EFE7C046007C0040001002400268054B6B
:1051A0009A4200D07047044A116D8023DB020B4302
:1051B0001365F7E7002800400010024010B50368AF
:1051C0008022D205934203D00B4A934206D010BDF1
:1051D0000A4A936B01210B439363F8E7074A536B29
:1051E00004210B435363002200211420FBF78AFFA4
:1051F0001420FBF7B7FFEAE7000801400010024067
:10520000F0B587B002688023DB059A4201D007B071
:10521000F0BD0225019502950024039404940595A0
:10522000A027FF0501A93800FCF720FA20230193ED
:105230000295039404940526059601A93800FCF70D
:1052400015FA01230193029503940494059601A98C
:105250000148FCF70BFADAE70004005000B587B00C
:1052600002680D4B9A4201D007B000BD0B4A916B0A
:1052700080239B020B439363094B01930223029308
:10528000002303930333049301330593A02001A962
:10529000C005FCF7EBF9E7E70044004000100240CE
:1052A0000480000010B5044A136801331360FBF753
:1052B00023FCFBF78EFF10BD5803002010B50248F9
:1052C000FCF794F810BDC046B802002010B50248A3
:1052D000FCF718FB10BDC0469801002010B5264B06
:1052E0001B68302B25D8254A1268012A12D0A0212C
:1052F000C90548698022520042404A611F4A012183
:10530000116001331C4A1360332B2AD81C48FDF767
:105310000CFE10BDA021C9054869FF3242404A6118
:10532000164A002010605A0808699200154950502A
:10533000E7E7312BE5D8114A1268012A08D0A022EC
:10534000D2058021490091610C4AFF391160D8E7EC
:10535000A022D205802149009162084A00211160F3
:10536000CFE70748FDF7A0FC034A13680133136039
:10537000024B01221A60C9E7B40000205C00002043
:105380005C03002028010020104B19688022520085
:105390000A431A60DA680E490A40DA601A680D4951
:1053A0000A401A609A6801218A439A601A680A4979
:1053B0000A401A60DA6809490A40DA6000221A6174
:1053C000074B802212059A607047C04600100240C9
:1053D0000C40FF88F6FFF6FEFFFFFBFFFFFF02FF1A
:1053E00000ED00E00D488546002103E00C4B5B58C2
:1053F000435004310B480C4B42189A42F6D30B4AE7
:1054000002E0002313600432094B9A42F9D3FFF7FC
:10541000BBFF00F011F8FFF73DFDFEE70020002084
:105420001C560008000000206400002064000020DA
:1054300094030020FEE7000070B500260C4D0D4CD3
:10544000641BA410A64209D1002600F019F80A4DE9
:105450000A4C641BA410A64205D170BDB300EB58E2
:1054600098470136EEE7B300EB5898470136F2E76C
:105470001456000814560008145600081856000860
:10548000F8B5C046F8BC08BC9E467047F8B5C046A3
:08549000F8BC08BC9E46704701
:10549800A6320008C2320008DE3200086033000875
:1054A80016330008603300086033000860330008D2
:1054B80032330008FE310008243200083C3200086C
:1054C800A032000870320008A0320008A03200089C
:1054D800A032000888320008903600089636000886
:1054E8009C360008A2360008A8360008AE36000828
:1054F800A03A0008A63A0008AC3A0008B23A0008F8
:10550800B83A0008BE3A00088E3B00088A3B0008FB
:105518008E3B0008903B0008963B00089C3B000827
:10552800A23B00088E3B0008A83B0008B43B0008DB
:10553800C03B0008CC3B0008D83B0008E43B00080F
:10554800F03B0008E63C0008DE3C0008E63C0008AA
:10555800003D00080A3D0008143D00081E3D0008F3
:10556800E63C0008283D0008323D00083C3D0008A4
:10557800463D0008503D0008283E0008743D0008DC
:10558800803D0008923D00089E3D0008AA3D0008A5
:10559800B63D0008C23D0008D43D0008E03D0008C3
:1055A800EC3D0008F83D0008043E0008103E0008E5
:1055B8001C3E0008030406080C10182030000000E8
:1055C80000000000000000000102030406070809AB
:1055D80000000000010203042E2E2F5372632F6D6A
:1055E80061696E2E630000002E2E2F5372632F7395
:1055F800746D33326C3078785F68616C5F6D73708E
:045608002E6300000D
:08560C00F8ACFF7F0100000073
:04561400E9000008A1
:04561800C1000008C5
:10561C00AC000020B4020020B0000020040C0000FC
:10562C00D8090000FF0F0000B8000020B4000020D3
:10563C00B002002024010020FC0100209001002079
:10564C005C000020001BB70064000000540B00003D
:10565C0090010000F7167A000000B443040C00001F
:10566C00D8090000FF0F000060EA000001000000F4
:04567C0080841E0008
:04000005080053E5B7
:00000001FF
